:020000040800F2
:1000000098070020150B0008E9080008EB08000815
:10001000EF080008F3080008F708000800000000D7
:10002000000000000000000000000000FB080008C5
:10003000FD08000800000000FF0800080109000892
:100040002F0B00082F0B00082F0B00082F0B0008A8
:100050002F0B00082F0B0008610800082F0B000869
:100060002F0B00082F0B00082F0B00082F0B000888
:100070002F0B00082F0B00082F0B00082F0B000878
:100080002F0B00082F0B00082F0B00082F0B000868
:100090002F0B00082F0B00082F0B00087B07000810
:1000A0002F0B00082F0B00082F0B00082F0B000848
:1000B0002F0B00082F0B00082F0B00082F0B000838
:1000C0002F0B00082F0B00082F0B00082F0B000828
:1000D0002F0B00084B2F00082F0B00082F0B0008D8
:1000E0002F0B00082F0B00082F0B00082F0B000808
:1000F0002F0B00082F0B00082F0B00082F0B0008F8
:100100002F0B00082F0B00082F0B00082F0B0008E7
:100110002F0B00082F0B00082F0B00082F0B0008D7
:100120002F0B00082F0B00082F0B00082F0B0008C7
:100130002F0B00082F0B00082F0B00082F0B0008B7
:100140002F0B00082F0B00082F0B00082F0B0008A7
:100150002F0B00082F0B00082F0B00082F0B000897
:100160002F0B00082F0B00082F0B00082F0B000887
:100170002F0B00082F0B00082F0B00082F0B000877
:100180002F0B00082F0B000800F002F800F041F8D8
:100190000AA090E8000C82448344AAF10107DA45E2
:1001A00001D100F036F8AFF2090EBAE80F0013F0F3
:1001B000010F18BFFB1A43F00103184728C90000BC
:1001C00048C90000103A24BF78C878C1FAD852074D
:1001D00024BF30C830C144BF04680C6070470000C1
:1001E0000023002400250026103A28BF78C1FBD840
:1001F000520728BF30C148BF0B607047782908F00C
:100200003785002070471FB509F0EEFA1FBD10B505
:1002100010BD08F087FE1146FFF7F5FF00F0E6F885
:1002200008F0A5FE03B4FFF7F2FF03BC02F02EFEB8
:1002300010B502460520FE4B1B681BB900F12D03CB
:1002400098B206E0FA4B08331B6813B900F15F035C
:1002500098B201291CD1012A0ED1F64B1B68034428
:10026000F44C236023461B6841F27074A3422BD9DF
:100270002346F04C236027E0EE4B1B681B1AED4C25
:10028000236023461B68052B1ED2002323601BE03E
:10029000012A0ED1E84B1B680344E74C2360234638
:1002A0001B6841F27074A3420ED92346E24C2360CE
:1002B0000AE0E14B1B681B1ADF4C236023461B68D6
:1002C000052B01D20023236010BD10B5024601208A
:1002D000D74B1B6813B9031D98B206E0D44B083303
:1002E0001B6813B900F1090398B2012919D1012A39
:1002F0000BD1D24B1B880344D04C238023461B8850
:10030000632B27DD6323238024E0CC4B1B881B1A3F
:10031000CA4C238023461B88012B1BDA0123238030
:1003200018E0012A0BD1C64B1B880344C44C238020
:1003300023461B88632B0DDD632323800AE0C04B1B
:100340001B881B1ABE4C238023461B88012B01DA15
:100350000123238010BD10B502466420B44B1B68F6
:100360001BB9A0F15A0398B206E0B14B08331B68E1
:1003700013B900F5617398B201291BD1012A0DD17F
:10038000B04B1B680344AF4C236023461B68AE4C44
:10039000A3422AD92346AB4C236026E0A94B1B6815
:1003A0001B1AA84C236023461B680A2B1DD20A2364
:1003B00023601AE0012A0DD1A44B1B680344A34C0F
:1003C000236023461B68A04CA3420ED923469F4CB2
:1003D00023600AE09D4B1B681B1A9C4C236023463C
:1003E0001B680A2B01D20A23236010BD1CB5002410
:1003F00000254FF4A06000F0ADFB02F0B3FEA82092
:1004000002F0C2FC4FF4E13002F04DFD03F076FF44
:1004100007F06CFF8E4882888EA1914808F0ECFBB3
:1004200023E090A010210B46C822CDE900103C210A
:10043000142007F0BAFE4FF4FA7002F007FD8EA008
:1004400010210B46C822CDE900103C21142007F0F2
:10045000ACFE4FF4FA7002F0F9FC8C48006808B961
:10046000012000E000208949086007F0C2FF002851
:10047000D7D187A010210B46C822CDE900103C211E
:10048000142007F092FE02F0B5FF0C2008F007F8E8
:10049000C4B2AA2C22D1002008F001F869490860F2
:1004A000042007F0FCFF65490880082007F0F7FFEB
:1004B00060490860102007F0F2FF644908601420CA
:1004C00007F0EDFF5E490880182007F0E8FF5A4961
:1004D00008601C2007F0E3FF71490870704800783D
:1004E000704908708223534802685448018855486F
:1004F000006808F070FAD2234F480268504801881B
:100500005248006808F067FA674801786448007844
:1005100008F00AF962480078012808D145480268C5
:10052000464801884748006802F03CFE07E0424820
:100530000268434801884548006802F033FE08F02D
:10054000F1FA02F047FD17E1584801F09BFCC0F3B7
:100550004700574908701820042300900846027885
:100560004FF4C871282007F066FD4F4800785149C4
:100570000978884209D04C4801784948007808F049
:10058000D3F8494800784B490870494800784A49EF
:10059000097888424AD04648007847490978884215
:1005A00001DD012508E04248007843490978884286
:1005B00001DA002500E004253B480078012804D03A
:1005C000022808D0032812D10BE0354801782846CC
:1005D000FFF7C1FE0BE0324801782846FFF775FEB1
:1005E00005E02F4801782846FFF722FE00BF00BF34
:1005F0002B48007801286DD182230E4802680F48ED
:1006000001881048006808F0E6F90E4801680020EB
:1006100007F029FF09480188042007F024FF054856
:100620000168082007F01FFF024847E07AE051E028
:1006300008024242080000201400002004000020AC
:10064000100000200000002040420F000C0000209D
:100650001C0100204C43442049443A2530345800C2
:100660002A010020323443303220436865636B2016
:100670004661696C65642100506C65617365204357
:100680006865636B2120202020202000A482424244
:100690003234433032205265616479210000000019
:1006A000180000201C000020190000200008004055
:1006B0001A0000201D0000201B00002002687B485B
:1006C00001887B48006802F06DFDAA210C2007F02C
:1006D000CAFE23E0D223774802687748018877482A
:1006E000006808F078F975480168102007F0BBFE33
:1006F00071480188142007F0B6FE6E480168182082
:1007000007F0B1FE6B4802686B4801886B480068CF
:1007100002F048FDAA210C2007F0A5FE68480078E9
:10072000684908706848007868490978884223D089
:1007300065480078012808D1654802685B4801884F
:100740005B48006802F02EFD07E05A4802685A48EC
:1007500001885A48006802F025FD5B4801781C209A
:1007600007F081FE584800785849087059480178C8
:100770005548007807F0D8FFE6E610B5202000F0D5
:10078000CDFA00286BD0052002F060FB52480068CB
:1007900000285ED14F480078401C4E49087008463A
:1007A0000078042801D1012008704C480068002816
:1007B00047D1032002F04AFB48480068002840D196
:1007C0004EF660203A490860322038490880C82037
:1007D0003F4908604EF27860384908603220364957
:1007E000088096203349086037480078012808D1EE
:1007F000374802682D4801882D48006802F0D2FC75
:1008000007E02C4802682C4801882C48006802F058
:10081000C9FC82232E4802682448018824480068C5
:1008200008F0D9F8D22323480268234801882348D6
:10083000006808F0D0F8274801782348007807F0CE
:1008400073FF2748006808B9012000E00020244910
:100850000860142002F0FAFA202000F06AFA10BDB5
:1008600010B5012000F05AFAF0B1052002F0EEFABE
:100870001C480068012814D113480078012803D1CE
:1008800002201149087002E001200F490870144845
:10089000001D006808B9012000E000201049091D72
:1008A0000860012000F045FA10BD0000040000209F
:1008B0000000002014000020100000200C00002088
:1008C0001A0000201B000020180000201C0000203F
:1008D0000800002019000020148240420C0242420D
:1008E000A482424200024042704700BFFEE700BFC0
:1008F000FEE700BFFEE700BFFEE7704770477047A6
:10090000704700000CB50020019000907648006808
:1009100040F480307449086000BF7348006800F4F8
:10092000003000900198401C0190009818B901987F
:10093000B0F5A04FF1D16C48006800F4003010B160
:100940000120009001E0002000900098012846D18D
:1009500065484030006840F080506349403108608D
:100960006248006840F44040604908605E480830D2
:1009700000685D49083108600846006840F400409E
:1009800008600846006840F4A05008605848091FF5
:100990000860081F006840F08070091F086000BFF1
:1009A0005148006800F000700028F9D040F205704E
:1009B000504908604C480830006820F003004A495C
:1009C000083108600846006840F00200086000BF77
:1009D00045480830006800F00C000828F8D10CBD2C
:1009E00010B54548006840F47000434908603E482F
:1009F000006840F001003C49086000203A49083195
:100A00000860394800683D490840374908603C485B
:100A1000091D0860081F006820F48020091F086075
:100A2000002031490C310860FFF76CFF4FF0006087
:100A300031498039086010BD70B5002000220223C2
:100A400000240221284D08352D6805F00C0020B146
:100A5000042806D0082834D107E02A4D2A4E3560F4
:100A600033E02A4D284E35602FE01F4D2D1D2D6897
:100A7000C5F380541C4D2D1D2D6805F03F0154B168
:100A8000224DB5FBF1F5184E361D3668C6F38816B3
:100A900005FB06F209E01B4DB5FBF1F5124E361DC4
:100AA0003668C6F3881605FB06F20F4D2D1D2D681E
:100AB000C5F301456D1C6B00B2FBF3F5124E3560BA
:100AC00003E0104D104E356000BF00BF064D0835E5
:100AD0002D68C5F303150E4E705D0B4D2D68C54096
:100AE000094E356070BD00000038024000700040C3
:100AF00008544007003C024088ED00E0FFFFF6FE8E
:100B0000103000240024F4002000002000127A009D
:100B1000240000200948804709480047FEE7FEE717
:100B2000FEE7FEE7FEE7FEE7FEE7FEE7FEE7FEE79D
:100B300004480549054A064B70470000E1090008D2
:100B400089010008980100209807002098030020E0
:100B50009803002032490143324A1160704770B552
:100B6000002100230F22C4781CB32E4C246804F407
:100B7000E064C4F5E064C4F30721C1F10404E3B206
:100B80000A4144789C40E1B28478144021430C0728
:100B9000210E254C05786155047804F01F050124C9
:100BA000AC4005786D11AD0005F1E025C5F80041B8
:100BB00009E0047804F01F050124AC401B4D0678C1
:100BC000761145F8264070BD194A0A400243154B7C
:100BD0001B1F1A60704739B1124A121D1268024376
:100BE000104B1B1D1A6006E00E4A121D126882434C
:100BF0000C4B1B1D1A607047042808D14FF0E021F0
:100C0000096941F004014FF0E022116107E04FF063
:100C1000E021096921F004014FF0E02211617047E1
:100C20000000FA050CED00E000E400E080E100E0E7
:100C300080FFFF1F002041490860091D0860091D51
:100C40000860091D08603E483C491431086070473F
:100C500000213A498279002A3AD00A46126803688C
:100C60009A430B461A600A1D126803689A430B1DCB
:100C70001A60027911440A6803681A430A602F4A0D
:100C80000832126803689A432C4B08331A601A1D05
:100C9000126803689A43294B0C331A604279102A70
:100CA0000ED11A1F126803681A43244B08331A60C6
:100CB0001A1D126803681A43204B0C331A600DE0AA
:100CC0001E49427911440A6803681A430A6005E024
:100CD000027911440A6803689A430A607047002148
:100CE000016001710C21417100218171704713492C
:100CF000103109680143114A1032116070470146F2
:100D000000200E4A143212680A400AB1012000E0A5
:100D100000207047094914310860704701460020DF
:100D2000064A143212680A400AB1012000E000208D
:100D3000704702491431086070470000003C0140D0
:100D4000FFFF7F0030B943F2DB028100A1F1C04117
:100D50000A6005E043F2D2028100A1F1C0410A60BD
:100D60006FF07042411C8900A1F1C0410A6081000E
:100D7000A1F1C041C1F804217047D0E9011211432B
:100D8000C2681143026911434269114382691143E8
:100D9000C2691143026A1143426A1143826A1143D4
:100DA000C26A1143026B114302689200A2F1C04271
:100DB0001160816808290BD101688900A1F1C04147
:100DC000096841F0400201688900A1F1C0410A6050
:100DD000416B0968426B526841EA0211426B9268AA
:100DE00041EA0221426B928941EA0241426B128A36
:100DF00041EA0251426B127D41EA0261426B926903
:100E000011430268521C9200A2F1C0421160C16AF3
:100E1000B1F5804F1BD1816B0968826B526841EA42
:100E20000211826B926841EA0221826B128A41EAC6
:100E30000251826B127D41EA0261826B9269114319
:100E400002689200A2F1C042C2F8041107E06FF0FC
:100E5000704201688900A1F1C041C1F804217047C6
:100E6000002101600221416000218160C1600161B7
:100E700041618161C16101624FF480514162490069
:100E800081620021C1620163F84941638163704757
:100E900051B18200A2F1C042126842F00103820007
:100EA000A2F1C042136009E08200A2F1C0421268C0
:100EB000EF4B1A408300A3F1C0431A60704710281B
:100EC0000AD118214FF020421166402151664FF09F
:100ED000FC319166D16610E01821E64A116040218C
:100EE0004FF02042C2F884104FF0FC31E14A083242
:100EF00011604FF02042C2F88C10704730B50021CD
:100F000000220023446844F0080485682C43C56827
:100F10002C4305692C43456944EA4524856944EA24
:100F20004531C4692468C5696D6844EA0524C5690A
:100F30002D8944EA0544C5692D7B44EA0562046AAB
:100F40002468056A6D6844EA0524056A2D8944EA27
:100F50000544056A2D7B44EA05630468102C05D11D
:100F60004FF020442166A266E36608E0C14C216090
:100F70004FF02044C4F88820BE4C0C34236030BDB0
:100F800010210160002141608160C1600161416107
:100F90008161FC21C2691160C2695160C2699160BE
:100FA000C269D160026A1160026A5160026A91608E
:100FB000026AD160704799B1102808D14FF02042E1
:100FC000126E42F004024FF020431A661DE0A94A57
:100FD000126842F004024FF02043C3F8802014E06E
:100FE000102809D14FF02042126EA14BDB1E1A408F
:100FF0004FF020431A6608E09E4A12689C4BDB1EA5
:101000001A404FF02043C3F88020704799B1102850
:1010100008D14FF02042126E42F040024FF02043C0
:101020001A661DE0934A126842F040024FF02043D6
:10103000C3F8802014E0102809D14FF02042126E2E
:101040008B4B3F3B1A404FF020431A6608E0894A19
:101050001268874B3F3B1A404FF02043C3F8802073
:10106000704701460020102903D14FF02042506FF5
:1010700002E0804A14321068704718207D49203100
:10108000086000200906C1F8A4004FF0FC3079493F
:1010900028310860091D0860091D08607047016853
:1010A00041F01001426841EA4221826841EA42313E
:1010B000704A20321160C1680968C268526841EA0A
:1010C0000221C268128941EA0241C268127B41EAE8
:1010D0000261684A28321160016909680269526830
:1010E00041EA02210269128941EA02410269127B46
:1010F00041EA02615F4A2C32116041690968426924
:10110000526841EA02214269128941EA0241426978
:10111000127B41EA02614FF02042C2F8B0107047E2
:101120000021016041608160FC21C2681160C268D9
:101130005160C2689160C268D16002691160026941
:101140005160026991600269D1604269116042692F
:101150005160426991604269D160704748B1454928
:101160002031096841F004014FF02042C2F8A0107C
:1011700009E04049203109683D4AD21E11404FF034
:101180002042C2F8A010704710B5F2B1102807D164
:101190004FF020435B6E0B434FF02044636632E018
:1011A000B0F5807F08D1334B1B1D1B680B434FF0FC
:1011B0002044C4F8843026E02E4B24331B680B43B4
:1011C0004FF02044C4F8A4301DE0102807D14FF0A0
:1011D00020435B6E8B434FF02044636613E0B0F511
:1011E000807F08D1234B1B1D1B688B434FF020448D
:1011F000C4F8843007E01F4B24331B688B434FF047
:101200002044C4F8A43010BD10B5024600200023CD
:10121000102A03D14FF02044636E09E0B2F5807FBD
:1012200003D1144C241D236802E0124C243423689B
:1012300003EA01040CB1012000E0002010BD1028D9
:1012400007D14FF02042526E8A434FF020435A6636
:1012500019E0B0F5807F0FD1064A121D12688A434B
:101260004FF02043C3F884200DE00000F4970008FD
:10127000FEFF0F00800000A0234A12688A434FF04F
:101280002043C3F8A420704770B502460020002315
:1012900000240025102A03D14FF02046736E08E089
:1012A000B2F5807F03D1184E203E336801E0164E20
:1012B000336803EA010403EAD10514B10DB101203A
:1012C00000E0002070BD102808D14FF02042526E7F
:1012D00022EAD1024FF020435A6614E0B0F5807F35
:1012E00009D1094A203A126822EAD1024FF020437C
:1012F000C3F8842007E0044A126822EAD1024FF0C2
:101300002043C3F8A4207047A40000A010B50446F1
:101310009848844208D10121084600F086FB00214C
:10132000012000F082FB76E09348844208D101213D
:10133000022000F07AFB0021022000F076FB6AE038
:101340008E48844208D10121042000F06EFB002168
:10135000042000F06AFB5EE08948844208D1012144
:10136000082000F062FB0021082000F05EFB52E044
:101370008448844208D10121102000F056FB00214E
:10138000102000F052FB46E07F48844208D1012142
:10139000202000F04AFB0021202000F046FB3AE02C
:1013A0007A48844208D10121402000F03EFB002110
:1013B000402000F03AFB2EE07548844208D101211C
:1013C000802000F032FB0021802000F02EFB22E084
:1013D0007048844208D10121801500F026FB0021CD
:1013E000A01500F022FB16E06B48844208D10121D1
:1013F000401500F01AFB0021601500F016FB0AE012
:101400006648844207D10121001500F00EFB00213F
:10141000201500F00AFB10BDF0B50A46002100239C
:10142000002400BF3DE0012505FA01F3156805EA37
:1014300003049C4234D105684F000326BE40B543E7
:10144000056015794E00B54006683543056015798D
:10145000012D02D01579022D16D185684F00032683
:10146000BE40B543856055794E00B540866835432A
:101470008560456801268E40B5434560456896798C
:101480008E40B6B235434560C5684F000326BE4066
:10149000B543C560D5794E00B540C6683543C560D3
:1014A000491C1029BFD3F0BD4FF6FF710160002128
:1014B000017141718171C171704708B54FF480327B
:1014C0000092009A0A430092009AC261C161009A98
:1014D000C261C2690092C269009208BD0246002042
:1014E00013690B400BB1012000E00020704701465A
:1014F000086980B270470246002053690B400BB167
:10150000012000E0002070470146486980B2704722
:1015100001837047418370470AB1018300E0418332
:1015200070474161704742694A4042617047F0B577
:10153000002300244D07ED0E02FA05F3CE1000F152
:10154000200555F826504E07F70E0F26BE40B5432E
:10155000CF1000F1200646F82750CE1000F12005EC
:1015600055F8265045EA0304CE1000F1200545F851
:101570002640F0BD00000240000402400008024086
:10158000000C02400010024000140240001802400B
:10159000001C0240002002400024024000280240BB
:1015A000F948006840F00100F74908600020F6495A
:1015B00008310860F4480068F4490840F2490860BE
:1015C000F348091D0860F348EF4984310860F0488A
:1015D0001038091D0860EC48006820F48020EA49B2
:1015E00008600020E8490C310860E7498C31086048
:1015F00070470021E44A921C117011460870704730
:1016000010B501460022002300204A11012A02D110
:10161000DD4C236808E0022A03D1DB4C70342368D8
:1016200002E0D94C7434236801F01F020124944075
:101630001C400CB1012000E0002010BD38B5002096
:1016400000900024002500BF3120FFF7D9FF054698
:101650000098401C00900098B0F5A04F01D0002DDC
:10166000F2D03120FFF7CCFF08B1012400E00024C4
:10167000204638BD01460020C34A106820F0F8001B
:1016800040EAC10010607047C349086070470021FC
:10169000BD4A703211701170012802D004280AD19D
:1016A00004E00121B84A7032117005E00521B64A04
:1016B0007032117000E000BF00BF7047B74908608A
:1016C000704770B5049C41EA82150126C6EB5306AB
:1016D00045EA0645054345EA0465AB4E361D3560CF
:1016E00070BDAD4908667047820142EA0172A64B9F
:1016F00084331A607047A8498866704710B5830123
:1017000043EA016343EA02739F4C8834236010BDAF
:10171000A14908677047A049C86470470246002085
:10172000994B0833186820F0EC6042EA0103184333
:10173000954B08331860704702460020924B0833DF
:10174000186820F0784042EA010318438E4B0833B2
:1017500018607047014600208B4A0832106820F05C
:10176000030008431060704787480830006800F0A5
:101770000C00704701460020834A0832106820F0B0
:10178000F000084310607047014600207E4A08328E
:10179000106820F4E05008431060704701460020B4
:1017A000794A0832106820F4604040EAC1001060B5
:1017B0007047F0B5002100220024022500260223F4
:1017C000714F08373F6807F00C0121B1042905D09B
:1017D000082937D105E0724F076036E0714F076086
:1017E00033E0694F3F1D3F68C7F38056664F3F1D8A
:1017F0003F6807F03F036EB16A4FB7FBF3F7DFF8BE
:1018000088C10CF1040CDCF800C0CCF3881C07FB89
:101810000CF40CE0624FB7FBF3F7DFF86CC10CF18E
:10182000040CDCF800C0CCF3881C07FB0CF4564F0A
:101830003F1D3F68C7F301477F1C7D00B4FBF5F7F0
:10184000076002E0564F076000BF00BF4E4F0837E9
:101850003F6807F0F0010909534F7A5C0768D740E9
:101860004760494F08373F6807F4E051890A4E4FF7
:101870007A5C4768D7408760434F08373F6807F472
:101880006041490B484F7A5C4768D740C760F0BD5C
:10189000002100F44072B2F5407F0AD13A4A083282
:1018A000116821F4F811414A02401143364A0832C6
:1018B0001160354A70321268C0F30B031A43324B81
:1018C00070331A60704735494439086070473349AE
:1018D000403908607047364908607047014600206B
:1018E000294A8C32106820F01F004A1E1043264AF5
:1018F0008C321060704701460020234A8C321068F9
:1019000020F4F8504A1E40EA02201F4A8C32106030
:101910007047014600201C4A8C32106820F44010A9
:1019200008431060704701460020174A8C32106847
:1019300020F4400008431060704701460020124A1E
:101940008C32106820F44030084310607047194909
:101950000860704739B10C4A3032126802430A4BB2
:1019600030331A6006E0084A303212688243064B70
:1019700030331A607047F9B1034A343212680243B7
:10198000014B34331A601CE000380240FFFFF6EAD6
:10199000103000240030002000004742800E4742F3
:1019A0000024F40000127A0034000020FFFCFF0F36
:1019B0005C014742E01147428F4A126882438E4BD6
:1019C0001A60704739B18C4A121D126802438A4B63
:1019D0001B1D1A6006E0884A121D12688243864B5E
:1019E0001B1D1A60704739B1834A0C3212680243DA
:1019F000814B0C331A6006E07F4A0C321268824336
:101A00007D4B0C331A60704739B17B4A1032126833
:101A10000243794B10331A6006E0774A103212689D
:101A20008243754B10331A60704739B1724A243AB9
:101A300012680243704B243B1A6006E06E4A243A57
:101A4000126882436C4B243B1A60704739B16A4A72
:101A5000203A12680243684B203B1A6006E0664A4F
:101A6000203A12688243644B203B1A60704739B1B8
:101A7000614A1C3A126802435F4B1C3B1A6006E045
:101A80005D4A1C3A126882435B4B1C3B1A607047EC
:101A900039B1594A143A12680243574B143B1A6041
:101AA00006E0554A143A12688243534B143B1A60BD
:101AB000704739B1504A103A126802434E4B103BFE
:101AC0001A6006E04C4A103A126882434A4B103BB7
:101AD0001A60704739B1484A1C3212680243464BBB
:101AE0001C331A6006E0444A1C3212688243424B9F
:101AF0001C331A60704739B13F4A203212680243E2
:101B00003D4B20331A6006E03B4A20321268824384
:101B1000394B20331A60704739B1374A2432126882
:101B20000243354B24331A6006E0334A24321268EC
:101B30008243314B24331A60704739B12E4A2C321C
:101B4000126802432C4B2C331A6006E02A4A2C32CE
:101B500012688243284B2C331A60704739B1264AE9
:101B6000303212680243244B30331A6006E0224AB6
:101B7000303212688243204B30331A60704701289C
:101B800008D11D493C31096841F008011A4A3C322C
:101B9000116007E018493C31096821F00801164A34
:101BA0003C321160704739B1134A273A1278024328
:101BB000114B273B1A7006E00F4A273A12788243EE
:101BC0000D4B273B1A7070470B484030006840F0BF
:101BD0008070094940310860704701460020064A7C
:101BE000283A12680A400AB1012000E0002070473C
:101BF00001492639087070473438024010B5012178
:101C00008803FFF756FF00214FF48040FFF751FF94
:101C100010BD1C49086070471B490862704730B509
:101C200000228B071C0F0F2303FA04F2154B083315
:101C30008C1053F824309343124C08348D1044F820
:101C4000253023468C1053F824308C07240F00FADB
:101C500004F423430B4C08348D1044F8253030BD78
:101C60000949DC3108607047084908607047002066
:101C700004492031096801F4807109B1012000E0B4
:101C8000002070470038014000002742000427422E
:101C900010B50446FE48844208D101210846FFF7EA
:101CA00008FF00210120FFF704FF9DE0B4F1804F01
:101CB00008D101210846FFF7EBFE00210120FFF7C4
:101CC000E7FE91E0F348844208D101210220FFF7AA
:101CD000DFFE00210220FFF7DBFE85E0EE488442B4
:101CE00008D101210420FFF7D3FE00210420FFF7D3
:101CF000CFFE79E0E948844208D101210820FFF7AE
:101D0000C7FE00210820FFF7C3FE6DE0E4488442CF
:101D100008D101211020FFF7BBFE00211020FFF7A2
:101D2000B7FE61E0DF48844208D101212020FFF79F
:101D3000AFFE00212020FFF7ABFE55E0DA488442D9
:101D400008D101210220FFF7B4FE00210220FFF795
:101D5000B0FE49E0D548844209D101210804FFF7CB
:101D6000A8FE00214FF48030FFF7A3FE3CE0D048EE
:101D7000844209D101214804FFF79BFE00214FF462
:101D80000030FFF796FE2FE0CA48844209D10121B6
:101D90008804FFF78EFE00214FF48020FFF789FEB4
:101DA00022E0C548844208D101214020FFF770FE9F
:101DB00000214020FFF76CFE16E0C048844208D1A5
:101DC00001218020FFF764FE00218020FFF760FEE4
:101DD0000AE0BB48844207D101218015FFF758FE75
:101DE0000021A015FFF754FE10BD00220288A84B69
:101DF00098420ED0AC4B98420BD0B0F1804F08D037
:101E0000A44B984205D0A44B984202D0A34B9842D1
:101E100004D14FF68F731A404B881A43A04B984257
:101E200007D0A04B984204D04FF6FF431A400B89CD
:101E30001A4302804B68C3620B880385944B984217
:101E400002D0994B984201D18B7A03860123838279
:101E500070474FF0FF3141600021018001814180D6
:101E6000817270470185828270470A46002101888D
:101E70004FF68F73194011430180704741627047DC
:101E8000C16270470146486A70470146088D704735
:101E900021B1028842F00202028004E002884FF67B
:101EA000FD731A400280704721B1028842F004029B
:101EB000028004E002884FF6FB731A4002807047EC
:101EC00021B1028842F08002028004E002884FF6CD
:101ED0007F731A400280704702884FF6F7731A40EA
:101EE000028002880A430280704702884FF6FF434F
:101EF0001A40028002880A430280704721B102889A
:101F000042F00102028004E002884FF6FE731A409C
:101F10000280704770B5002400220023058C4FF624
:101F2000FE7635400584028C8388048B4FF68F75CE
:101F30002C40B51E2C400D882C43751E2A408D89DF
:101F40002A434D882A43524DA84202D0564DA842FA
:101F500013D14FF6F7752A40CD892A434FF6FB750A
:101F60002A408D882A434FF6FF652B404FF6FF55D8
:101F70002B400D8A2B434D8A2B43838004838D682D
:101F80004563028470BD70B5002400220023058CD7
:101F90004FF6EF7635400584028C8388048B48F633
:101FA000FF752C404FF6FF452C400D884FF6FF760D
:101FB00006EA05252C434FF6DF752A408D8906EA8F
:101FC00005152A434D8806EA05152A43304DA842D7
:101FD00002D0354DA8421DD14FF67F752A40CD89DC
:101FE0004FF6FF7606EA05152A434FF6BF752A40DD
:101FF0008D8806EA05152A434FF6FF352B404FF230
:10200000FF752B400D8A06EA85052B434D8A06EAAB
:1020100085052B43838004838D688563028470BDAE
:1020200070B5002400220023058C4FF6FF66354072
:102030000584028C8388848B4FF68F752C404FF675
:10204000FC752C400D882C434FF6FF552A408D8996
:102050004FF6FF7606EA05252A434D8806EA052550
:102060002A430B4DA84202D00F4DA84238D14FF25F
:10207000FF752A40CD894FF6FF7606EA05252A43EB
:102080004FF6FF352A408D8806EA05252A4319E0D8
:10209000000001400004004000080040000C004027
:1020A00000100040001400400004014000400140C6
:1020B000004401400048014000180040001C00405E
:1020C000002000404EF6FF752B404DF6FF752B406B
:1020D0000D8A06EA05152B434D8A06EA05152B43A2
:1020E000838084838D68C563028470BD70B50022CF
:1020F00000230024058C4EF6FF7635400584038CC2
:102100008488828B48F6FF752A404FF6FF452A40A7
:102110000D884FF6FF7606EA05252A434DF6FF7532
:102120002B408D8906EA05352B434D8806EA053597
:102130002B43FE4DA84202D0FD4DA84208D14BF6DC
:10214000FF752C400D8A4FF6FF7606EA85152C4365
:10215000848082838D680564038470BD00210180C2
:102160004180818081608181C1810182418270478B
:1021700070B50346002000241846183001258D4014
:10218000ACB21D8CA5431D8409B108290AD100EB0E
:10219000610005684FF68F76354005600568154388
:1021A00005600FE00D1FC5F34E052844056848F68D
:1021B000FF763540056005684FF6FF7606EA022691
:1021C0003543056070BD4163704781637047C163EB
:1021D0007047016470470A460021018B4FF68F73E8
:1021E00019401143018370470A460021018B48F6CC
:1021F000FF7319404FF6FF7303EA0223194301836B
:1022000070470A460021818B4FF68F7319401143A6
:10221000818370470A460021818B48F6FF7319407D
:102220004FF6FF7303EA02231943818370470A467E
:102230000021018B4FF6F77319401143018370475A
:102240000A460021018B4FF2FF7319404FF6FF73CE
:1022500003EA02231943018370470A460021818B58
:102260004FF6F77319401143818370470A460021E6
:10227000818B4FF2FF7319404FF6FF7303EA02237D
:102280001943818370470A460021018B4FF6FB7387
:1022900019401143018370470A460021018B4FF614
:1022A000FF3319404FF6FF7303EA022319430183FA
:1022B00070470A460021818B4FF6FB73194011438A
:1022C000818370470A460021818B4FF6FF33194006
:1022D0004FF6FF7303EA02231943818370470A46CE
:1022E0000021018B4FF67F73194011430183704722
:1022F0000A460021018BC1F30E014FF6FF7303EA7A
:1023000002231943018370470A460021818B4FF64F
:102310007F7319401143818370470A460021818BE6
:10232000C1F30E014FF6FF7303EA022319438183C1
:1023300070470A460021018C4FF6FD731940114386
:10234000018470470A460021018C4FF6F77319404B
:102350001143018470470A460021018C4FF6DF7358
:1023600019404FF6FF7303EA0213194301847047C3
:102370000A460021018C4FF67F7319404FF6FF7318
:1023800003EA02131943018470470A460021018CB5
:102390004FF6FF5319404FF6FF7303EA0223194328
:1023A000018470470A460021018C4FF2FF731940E7
:1023B0004FF6FF7303EA02231943018470470A466C
:1023C0000021018C4DF6FF7319404FF6FF7303EAAD
:1023D000023319430184704730B5002301248C4037
:1023E000A3B2048C9C430484048C02FA01F5ADB2C0
:1023F0002C43048430BD30B5002304248C40A3B2A8
:10240000048C9C430484048C02FA01F5ADB22C4385
:10241000048430BD828B4FF2FF331A408283828B5B
:102420004FF6FF7303EA01231A4382837047F0B526
:102430000C461546002100220026078C4EF6FF7C34
:1024400007EA0C070784818B028C4FF6FF7707EAB7
:10245000043640F6FF4739404FF6FF7707EA052775
:1024600039434FF6FF7707EA0337394345F6FF77DD
:102470003A4046F480573A4381830284F0BD828B10
:102480004FF6F3731A408283828B0A43828370472C
:10249000F0B50C461546002100220026078C4FF6A9
:1024A000FF6C07EA0C070784818B028C4FF6FF77DD
:1024B00007EA04264FF60C7739404FF6FF7707EA14
:1024C00003172F4339434FF2FF573A4046F48077C2
:1024D0003A4381830284F0BD028B4FF2FF331A40EE
:1024E0000283028B4FF6FF7303EA01231A43028330
:1024F0007047F0B50C461546002100220026078CD7
:102500004FF6EF7C07EA0C070784018B028C4FF62D
:10251000FF7707EA041640F6FF4739404FF6FF778A
:1025200007EA033739434FF6FF7703E00000014025
:102530000004014007EA052739434FF65F773A4028
:1025400046F010073A4301830284F0BD028B4FF638
:10255000F3731A400283028B0A4302837047F0B57B
:102560000C46154600210022068C4FF6FE773E40B1
:102570000684018B028C4FF60C7631407E1C06EAF5
:1025800003162E4331434FF6F576324044F00106F0
:10259000324301830284F0BD70B505460C462088A5
:1025A00050B92389A28861882846FFF7D8FFE188BF
:1025B0002846FFF7CBFF25E0208804280AD123898D
:1025C000A28861882846FFF794FFE1882846FFF734
:1025D00083FF17E0208808280AD12389A288618810
:1025E0002846FFF755FFE1882846FFF748FF09E036
:1025F0002389A28861882846FFF719FFE1882846C9
:10260000FFF708FF70BD002101804180012181801A
:102610000021C180018170472DE9F04105460C463B
:1026200000260127608808B9022600E00026A0885D
:10263000012801D1022700E001272088A0B92389C1
:10264000A28861882846FFF78AFFE1882846FFF7BD
:102650007DFF23893A4631462846FFF74AFFE18845
:102660002846FFF739FF13E02389A28861882846AE
:10267000FFF73FFFE1882846FFF72EFF23893A4600
:1026800031462846FFF76BFFE1882846FFF75EFFDB
:10269000BDE8F0810146486B70470146886B704782
:1026A0000146C86B70470146086C70470A884B8822
:1026B0001A438B881A43CB881A430B891A434B89D8
:1026C0001A438B891A43A0F84420704700210180E7
:1026D00041808180C180018141818181704731B118
:1026E000B0F8442042F40042A0F8442005E0B0F8DD
:1026F0004420C2F30E02A0F84420704721B1828822
:1027000042F00402828004E082884FF6FB731A4094
:102710008280704721B1828842F00102828004E009
:1027200082884FF6FE731A40828070471AB18389FF
:102730000B43838102E083898B43838170478182CD
:10274000704702460020138A0B400BB1012000E0C5
:1027500000207047CA430282704730B5024600200D
:1027600000230024158A05EA0103958905EA01047E
:1027700013B10CB1012000E0002030BDCA43028239
:10278000704741EA0203A0F8483070471AB18389C4
:102790000B43838102E083898B438381704721B19E
:1027A000828842F00802828004E082884FF6F77344
:1027B0001A408280704701894FF6F87211400181FA
:1027C00070470A46002101894FF68F731940114363
:1027D0000181704730B504460D4629462046FFF773
:1027E000F0FF208940F00700208130BD2DE9F04145
:1027F00004460D4616461F46602D06D13B46012273
:1028000031462046FFF775FE05E03B460122314682
:102810002046FFF7A4FE29462046FFF7D2FF208975
:1028200040F007002081BDE8F08130B50C46002162
:102830000189C9B24FF6FF7505EA03251543254303
:102840002943018130BD2DE9F04105460E4617466A
:102850009846002443463A4631462846FFF7E5FFAE
:102860002C894FF6F870044044F007044FF68F703F
:10287000044044F070042C81BDE8F081F0B50446BA
:102880000D4616461F463B46324629462046FFF770
:10289000CCFF208940F480402081F0BD82884FF633
:1028A0008F731A40828082880A438280704702892F
:1028B0004FF6F8731A40028102890A430281704779
:1028C00002894FF67F731A40028102890A4302810E
:1028D0007047F0B50C4615461E4600210022002325
:1028E0000189028B038C4FF6F877394021434FF66C
:1028F000FC473A4040F201173A434FF6DD773B4040
:102900004FF6FF7707EA06172F433B430181028307
:102910000384F0BD21B1828842F08002828004E00D
:1029200082884FF67F731A4082807047A0F850105B
:102930007047000010B50446FA48844208D10121CE
:102940001020FFF7B6F800211020FFF7B2F857E08B
:10295000F548844209D101214804FFF799F8002184
:102960004FF40030FFF794F84AE0F048844209D170
:1029700001218804FFF78CF800214FF48020FFF735
:1029800087F83DE0EA48844209D10121C804FFF7F5
:102990007FF800214FF40020FFF77AF830E0E54897
:1029A000844209D101210805FFF772F800214FF494
:1029B0008010FFF76DF823E0DF48844208D1012141
:1029C0002020FFF776F800212020FFF772F817E0AB
:1029D000DA48844209D101218807FFF759F800211C
:1029E0004FF08040FFF754F80AE0D548844207D101
:1029F00001214005FFF74CF800216005FFF748F87A
:102A000010BD2DE9FF4705460E460024A14600BF34
:102A1000A046B08900B100BF2C8A24F44054F0884D
:102A200004432C82AC8941F20C608443B088318924
:102A30000843718908430443AC81AC8A24F4407490
:102A4000B0890443AC826846FEF7B3FEB5488542C0
:102A500002D0B948854202D1DDF80C9001E0DDF8E2
:102A60000890A88900F4004040B109EBC90000EBD0
:102A7000091031684900B0FBF1F707E009EBC90024
:102A800000EB091031688900B0FBF1F76420B7FB57
:102A9000F0F004012009642101FB1078A88900F4FA
:102AA000004040B1322000EBC800B0FBF1F000F074
:102AB0000700044308E0322000EB08106421B0FB5B
:102AC000F1F000F00F0004432C81BDE8FF874FF4C4
:102AD0001651016000218180C18001810C2141815A
:102AE00000218181704710B502460020108A20F431
:102AF00070600B884C8823438C882343CC88234305
:102B00001843108210BD0021018041808180C18066
:102B1000704721B1828942F40052828104E08289A7
:102B20004DF6FF731A4082817047028B02F47F4298
:102B30000283028B0A430283704721B1828942F4E7
:102B40000042828103E08289C2F30E0282817047D3
:102B500021B1828A42F40062828204E0828A4FF2CA
:102B6000FF731A4082827047C1F308028280704767
:102B700001468888C0F308007047028A4FF6F07358
:102B80001A400282028A0A430282704721B1828976
:102B900042F00202828104E082894FF6FD731A40FE
:102BA0008281704782894FF2FF731A408281828945
:102BB0000A4382817047028A4FF6DF731A4002820D
:102BC000028A0A430282704721B1028A42F480429B
:102BD000028204E0028A4BF6FF731A4002827047B9
:102BE000818941F001018181704721B1828A42F0DF
:102BF0000802828204E0828A4FF6F7731A408282CA
:102C00007047028BD2B20283028B42EA0122028316
:102C1000704721B1828A42F02002828204E0828AD7
:102C20004FF6DF731A408282704721B1828A42F0E8
:102C30001002828204E0828A4FF6EF731A40828289
:102C40007047828A4FF6FB731A408282828A0A4357
:102C50008282704721B1828A42F00202828204E0BD
:102C6000828A4FF6FD731A40828270471AB1838AB6
:102C70000B43838202E0838A8B4383827047F0B5E3
:102C80000346002400260025002040F66A17B942BA
:102C900000D100BF1846C1F3421401F01F060127FE
:102CA00007FA06F5012C01D10C3004E0022C01D109
:102CB000103000E014301AB107682F43076002E0BB
:102CC0000768AF430760F0BD02460020B1F5007F02
:102CD00000D100BF13880B400BB1012000E00020A1
:102CE000704701F40072B2F5007F00D100BFCA4303
:102CF0000280704770B502460024002300250020A2
:102D000040F66A16B14200D100BFC1F3421501F08E
:102D10001F03012606FA03F3012D13D196893340D0
:102D200017E000000010014000440040004800404F
:102D3000004C00400050004000140140007800406A
:102D4000007C0040022D02D1168A334001E0968AB1
:102D500033400C12012606FA04F41688344013B1ED
:102D60000CB1012000E0002070BD10B5002200234E
:102D700040F66A14A14200D100BF0A120124944017
:102D8000A3B2DC43048010BD10B504466FF004000C
:102D9000FDF732FFE11704EB5171C1F3C701394A66
:102DA00011701046007800EB4001C1EBC0104FF6E7
:102DB000FF7101EAC0003449088010BD0146314A64
:102DC00012784A434FF0E0235A6100229A611A4672
:102DD000126942F001021A6100BF4FF0E02210694F
:102DE00000F001021AB100F48032002AF5D04FF051
:102DF000E022126922F001024FF0E0231A61002262
:102E00009A6170470146204A12884A434FF0E023F6
:102E10005A6100229A611A46126942F001021A614F
:102E200000BF4FF0E022106900F001021AB100F477
:102E30008032002AF5D04FF0E022126922F0010220
:102E40004FF0E0231A6100229A61704770B5044682
:102E50004FF4077094FBF0F0C6B24FF4077094FB88
:102E6000F0F100FB114085B205E04FF40770FFF769
:102E7000C9FF701EC6B2002EF7D115B12846FFF764
:102E8000C1FF70BD440000204600002000BF704715
:102E900000BF4C4A128802F04002002AF9D0C2B2A8
:102EA000484B9A80704710B588B004460121084607
:102EB000FEF750FD01211020FEF7A6FD0722092193
:102EC0004148FEF734FB07220A213F48FEF72FFB5B
:102ED0004FF4C060069002208DF81C008DF81D0094
:102EE00000208DF81E0001208DF81F0006A936482D
:102EF000FEF792FA02940020ADF80C00ADF80E0037
:102F0000ADF81000ADF814000C20ADF8120002A9C5
:102F10002C48FFF776FD01212A48FFF7FAFD012230
:102F200040F225512748FFF7AAFE25208DF804001E
:102F300003208DF805008DF8060001208DF80700AC
:102F400001A8FDF70CFE08B010BD10B540F22551E8
:102F50001C48FFF7CFFE10B31A48FFF709FEC4B2B2
:102F60001A48008800F40040C8B91848008800F4E6
:102F7000804060B10A2C03D000201449088020E072
:102F80001248008840F400401049088019E00D2CD8
:102F900006D10E48008840F480400C49088010E0BB
:102FA0000A480088C0F30D0009490C5407480088FE
:102FB000401C0649088008460088C72801DD00201B
:102FC000088010BD00100140000002404C000020AD
:102FD0005400002000B585B001215320FEF7BAFC53
:102FE00001218803FEF710FD1C20019000208DF8C0
:102FF000080002208DF8090001208DF80B0001A9BE
:103000005548FEF709FA0120019002208DF80B00C7
:1030100001A95248FEF700FA2020019001208DF806
:103020000B0001A94E48FEF7F7F900210846FEF70C
:10303000F6FD05210120FEF7F2FD28200390012076
:103040008DF8120000208DF810000C208DF8110072
:1030500003A8FDF7FDFD012003908DF8120000206C
:103060008DF8100008208DF8110003A8FDF7F0FD81
:1030700006208DF8000001208DF8030002208DF855
:10308000010001208DF802006846FDF768FD172059
:103090008DF8000001208DF8030003208DF8010059
:1030A00002208DF802006846FDF759FD05B000BD0D
:1030B00010B510212848FEF711FA78B108212648EA
:1030C000FEF70CFA50B104212348FEF707FA28B1A5
:1030D00001212248FEF702FA01283BD10520FFF723
:1030E000B5FE10211C48FEF7F9F940B900BF1021C8
:1030F0001948FEF7F3F90028F9D0012010BD082186
:103100001548FEF7EBF940B900BF08211248FEF759
:10311000E5F90028F9D00220F0E704210E48FEF777
:10312000DDF940B900BF04210B48FEF7D7F90028AC
:10313000F9D00320E2E701210848FEF7CFF9012882
:1031400008D100BF01210548FEF7C8F90128F9D0D0
:103150000420D3E70020D1E7001002400000024025
:10316000000402401CB501212020FEF7F3FB0120E2
:103170008DF8040000208DF806004FF4C060009028
:1031800001208DF8070003208DF8050069460448EA
:10319000FEF742F94FF4C0610148FEF7B9F91CBDD2
:1031A000001402402DE9F04F2DED0C8B87B0064640
:1031B000894614464FF0000B40F6B830864209D2DB
:1031C000B0FBF6F808F101007043CF49B1FBF0F015
:1031D000471E05E04FF00008CB48B0FBF6F0471E55
:1031E000781C00FB09F06421B0FBF1F01FFA80FAB3
:1031F000B4F53D7F12D8204606F0FBF841EC190BE0
:103200009FEDC20B53EC102B05F06EFF41EC180B39
:1032100006F0C2F805464FF0010B9AE0B4F5BD6F19
:103220002AD8600806F0E5F841EC1C0B9FEDB70BBF
:1032300053EC102B05F058FF41EC1B0B9FEDB50B29
:1032400053EC102B05F0A8FE41EC1A0B9FEDB30BCD
:1032500053EC102B05F0A0FE41EC190B9FEDB10BC8
:1032600053EC102B06F0D6F941EC180B06F094F84D
:1032700005464FF0020B6CE040F6B830844232D87D
:10328000E00806F0B6F841EC1D0B9FEDA00B53ECE7
:10329000102B05F029FF41EC1C0B9FED9E0B53EC0E
:1032A000102B05F079FE41EC1B0B9FED9E0B53ECB0
:1032B000102B05F071FE41EC1A0B9FED980B53ECAF
:1032C000102B05F069FE41EC190B9FED980B53ECA8
:1032D000102B06F09FF941EC180B06F05DF805463F
:1032E0004FF0030B35E041F27070844231D8200971
:1032F00006F07FF841EC1D0B9FED840B53EC102B77
:1033000005F0F2FE41EC1C0B9FED880B53EC102BEB
:1033100006F080F941EC1B0B9FED7E0B53EC102B5C
:1033200005F03AFE41EC1A0B9FED7E0B53EC102B8F
:1033300005F032FE41EC190B9FED7C0B53EC102B8A
:1033400005F02AFE41EC180B06F026F805464FF072
:10335000040B39467748FEF793FD51467548FEF752
:1033600032FF51467348FEF730FF4FF48040ADF80E
:1033700018000020ADF814004FF40050ADF816000E
:10338000A8B2ADF812000020ADF81000ADF80E00A4
:10339000ADF80C0003A96748FFF788F966A018216B
:1033A0000B464FF4F072CDE900104FF4B4710020D9
:1033B00004F0FBFE182008233A464FF4B471009045
:1033C000002004F038FE1820042342464FF4B47164
:1033D0000090C82004F02FFE18200A232A464FF43C
:1033E000B4710090580104F026FE07B0BDEC0C8BC0
:1033F000BDE8F08F00B58FB001210220FEF704FB7D
:1034000001210620FEF7A6FA02208DF82400802074
:10341000089002208DF8250008A95648FDF7FCFF0A
:1034200002208DF824004003089002208DF825002A
:1034300008A95148FDF7F0FF03220E214E48FEF780
:1034400076F8032207214B48FEF771F80020ADF80B
:103450001C002020ADF8160040F2A31006900020BA
:10346000ADF814008DF81E0005A93248FEF7BDFC2A
:103470006020ADF828000020ADF83800ADF83A0023
:10348000ADF83600ADF834000420ADF82C00012072
:10349000ADF82A00D2200C900AA92648FEF73AFD82
:1034A00008212448FEF7C3FED2200C900AA9214827
:1034B000FEF769FD08211F48FEF7C2FE4FF4804069
:1034C000ADF810000020ADF80C004FF40050ADF83E
:1034D0000E000020ADF80A00ADF80800ADF80600B7
:1034E000ADF8040001A91348FFF7E0F801211148E5
:1034F000FEF7E6FC01210F48FFF7F1F801210D4826
:10350000FEF7FCFC0FB000BD00BD0105CDCCCCCC5E
:10351000CCCC17400000000000006040000000001C
:10352000000000000000000000005040000000000B
:1035300000004040000401402020202020202020C6
:10354000202020202020202020202020202020207B
:10355000202020202020202020202020202020206B
:10356000202020202020202020202020202020205B
:1035700000000000000802400004024001B5BDF850
:1035800000000090BDF80000F849088008BD01B5B2
:10359000BDF800000090BDF80000F449891C0880C7
:1035A00008BD08B5F148801C00880090BDF80000F7
:1035B00008BDEE4A10804FF0D842A2F88010704744
:1035C00010B504462046FFF7D9FF0520FFF7F6FBAC
:1035D000FFF7E7FF10BDE6480089E449088070471F
:1035E000E249891C0880704730B5014601F01F048C
:1035F000C1F34513CA0AE50205EB43151544A8B209
:1036000030BD00BF011EA0F10102D0B2FAD1704757
:1036100030B504460D46D648808849F2413188428B
:1036200005D0D348808845F21031884214D1D04962
:103630004889FFF7A3FF2012FFF7A9FFE0B2FFF7C9
:10364000A6FFCB498889FFF799FF2812FFF79FFF54
:10365000E8B2FFF79CFFABE0C548808846F604015E
:1036600088421DD1C2488079012804D1C048008811
:10367000401E001B84B2BE494889FFF77FFF20121D
:10368000FFF785FFE0B2FFF782FFB9498889FFF7AE
:1036900075FF2812FFF77BFFE8B2FFF778FF87E09E
:1036A000B348808841F66311884247D1B048807999
:1036B000A8B9AF480088401E001B84B2AC494889B5
:1036C000FFF75CFF0020FFF762FF0020FFF75FFFBE
:1036D0002012FFF75CFFE0B2FFF759FF16E0A449A4
:1036E0004889FFF74BFF2012FFF751FFE0B2FFF7C9
:1036F0004EFF9F490988491EC1F30F20FFF747FF7E
:103700009B490978491EC8B2FFF741FF984988894B
:10371000FFF734FF2812FFF73AFFE8B2FFF737FF51
:1037200093494988491EC1F30F20FFF730FF9049A4
:103730008978491EC8B2FFF72AFF39E08C48808893
:1037400045F21051884220D189494889FFF716FF78
:103750002012FFF71CFF86494989491C88B2FFF7F0
:103760000DFFE0B2FFF713FF81498889FFF706FFDD
:103770002812FFF70CFF7E498989491C88B2FFF7A0
:10378000FDFEE8B2FFF703FF12E0794880790128D7
:1037900004D177480088401E001B84B274494889D0
:1037A0002146FFF706FF724988892946FFF701FF86
:1037B00030BD2DE9F04105460E4600240027A04605
:1037C0006B480088A84203DD69484088B04202DCAB
:1037D0000020BDE8F08131462846FFF719FF644814
:1037E000808849F24131884211D06148808846F68C
:1037F000040188420BD05E48808845F2103188422F
:1038000005D05B48808841F66311884203D12E20A1
:10381000FFF7B4FE0DE05648808845F2105188420B
:1038200004D14FF43850FFF7A9FE02E02220FFF741
:10383000A5FE4F48808849F22031884202D10220FB
:10384000FFF7DFFEFFF7ADFE04464948808841F6EA
:103850006311884201D12046BBE70220FFF7D1FE69
:10386000FFF79FFE04464248808849F24131884272
:103870000BD03F48808845F21031884205D03C4843
:10388000808845F2105188420AD10220FFF7B9FE24
:10389000FFF787FE8046E7B24FF6FF7000EA072782
:1038A0003348808849F22531884216D030488088D4
:1038B00044F23551884210D02D488088091F884233
:1038C0000BD02B4880884BF20551884205D0284800
:1038D00080884CF20551884201D1204679E724487E
:1038E000808849F2413188420BD02148808845F2D6
:1038F0001031884205D01E48808845F21051884218
:1039000007D1E012C002B91240EA411040EAE820B3
:103910005FE72046FFF768FE5BE700B51448808844
:1039200049F24131884211D01148808846F604019D
:1039300088420BD00E48808845F21031884205D06D
:103940000B48808841F66311884203D12920FFF794
:1039500015FE14E00648808845F21051884209D1CE
:103960004FF42450FFF70AFE09E000007E00006CCF
:103970001C01002040F273110720FFF71AFE00BD62
:1039800000B5FD48808849F24131884211D0FA489B
:10399000808846F6040188420BD0F748808845F2BB
:1039A0001031884205D0F448808841F6631188427E
:1039B00003D12820FFF7E2FD0EE0EF48808845F2B2
:1039C0001051884204D14FF42050FFF7D7FD03E097
:1039D00000210720FFF7EDFD00BDF0B505460024EE
:1039E0000027E548807901280BD1E348808846F616
:1039F0000401884205D0E048808841F6631188427E
:103A000008D1DD488079F0B9DB48808841F6631140
:103A1000884218D1082D15D2DFE805F00406080AFF
:103A20000C0E101206250DE007250BE0042509E019
:103A3000052507E0012505E0002503E0032501E059
:103A4000022500BF00BFCC48808849F2413188423E
:103A500017D0C948808846F60401884211D0C6486C
:103A6000808845F2103188420BD0C348808845F2E7
:103A70001051884205D0C048808841F663118842C1
:103A80007ED1082D1CD2DFE805F00406090C0F12C8
:103A9000151800BF14E044F0800411E044F0400425
:103AA0000EE044F0C0040BE044F0200408E044F0D1
:103AB000600405E044F0A00402E044F0E00400BF2C
:103AC00000BFAD48808845F21051884202D14FF4C2
:103AD000585700E03627A848808845F210318842C0
:103AE0000DD0A548808845F21051884207D0A248E1
:103AF000808841F66311884201D044F008049E4852
:103B0000808846F60401884201D144F0020421462F
:103B10003846FFF74EFD9848808841F66311884289
:103B20001DD004F0200068B193480088924949886C
:103B3000884214DA9048068840888F4908800846F1
:103B400046800CE08C4800888B494988884206DD15
:103B50008948068840888849088008464680864803
:103B6000808845F21051884254D183494889FFF733
:103B700005FD0020FFF70BFD7F494989491C00E046
:103B800077E088B2FFF7FAFC0020FFF700FD7A49E2
:103B90004989891C88B2FFF7F1FC77490988491ED9
:103BA000C1F30F20FFF7F3FC73494989C91C88B2A0
:103BB000FFF7E4FC70490978491EC8B2FFF7E7FC3B
:103BC0006D498889FFF7DAFC0020FFF7E0FC6A49BD
:103BD0008989491C88B2FFF7D1FC0020FFF7D7FC88
:103BE00065498989891C88B2FFF7C8FC6249498800
:103BF000491EC1F30F20FFF7CAFC5F498989C91C20
:103C000088B2FFF7BBFC5C498978491EC8B2FFF750
:103C1000BEFC55E058494889FFF7B0FC0020FFF78B
:103C2000B6FC0020FFF7B3FC53490988491EC1F3D5
:103C30000F20FFF7ACFC50490978491EC8B2FFF7C6
:103C4000A6FC4D498889FFF799FC0020FFF79FFCEF
:103C50000020FFF79CFC48494988491EC1F30F200A
:103C6000FFF795FC44498978491EC8B2FFF78FFCDD
:103C700026E0082D1CD2DFE805F004070A0D0F121C
:103C8000151844F0300413E044F0100410E044F040
:103C900020040DE000BF0BE044F0380408E044F0DD
:103CA000280405E044F0180402E044F0080400BFD2
:103CB00000BF032744F4805421463846FFF779FCBF
:103CC000F0BD30B504460D4629462046FFF7A0FC5E
:103CD000FFF781FC294800882949088030BD70B56C
:103CE00004460D4616462448808849F241318842F0
:103CF00005D02148808845F21031884214D11E49F0
:103D00004889FFF73BFC2012FFF741FCE0B2FFF7C8
:103D10003EFC19498889FFF731FC2812FFF737FC70
:103D2000E8B2FFF734FC93E01348808845F2105165
:103D3000884227D110494889FFF720FC2012FFF75D
:103D400026FC0D494989491C88B2FFF717FCE0B2EF
:103D5000FFF71DFC08498889FFF710FC2812FFF7C0
:103D600016FC05498989491C88B2FFF707FCE8B2AF
:103D7000FFF70DFC6CE000001C0100204E0000204D
:103D80008000006CFE48808841F66311884228D18B
:103D9000FB48807920B9FA480088401E001B84B295
:103DA000F7494889FFF7EAFB2012FFF7F0FBE0B282
:103DB000FFF7EDFB2012FFF7EAFBE0B2FFF7E7FBAE
:103DC000EF498889FFF7DAFB2812FFF7E0FBE8B23A
:103DD000FFF7DDFB2812FFF7DAFBE8B2FFF7D7FBAE
:103DE00036E0E748808846F6040188421DD1E44861
:103DF0008079012804D1E2480088401E001B84B26B
:103E0000DF494889FFF7BAFB2012FFF7C0FBE0B299
:103E1000FFF7BDFBDA498889FFF7B0FB2812FFF7EF
:103E2000B6FBE8B2FFF7B3FB12E0D5488079012872
:103E300004D1D3480088401E001B84B2D049488971
:103E40002146FFF7B6FBCE4988892946FFF7B1FB2B
:103E5000CB480089CB4908804FF0D840A0F880605B
:103E600070BD70B52DED048B0446BE20FFF786FBB8
:103E70000520FFF78CFB204605F0BBFA41EC190B3F
:103E80009FEDC10B53EC102B05F0C6FA41EC180B5B
:103E900005F082FA85B22846FFF779FB0120FFF78B
:103EA00076FBFF20FFF773FB0020FFF770FB00207D
:103EB000FFF76DFBBDEC048B70BD10B50446002C04
:103EC00066D1AF498871F02008804FF4A070488017
:103ED0000846808849F2413188420BD0A848808842
:103EE00046F60401884205D0A548808845F2103185
:103EF00088421AD12C20A24908812A2048812B20EF
:103F000088810846808846F60401884205D09C488E
:103F1000808845F21031884206D14FF4A07098494C
:103F200008804FF4F0704880A1E09548808845F201
:103F30001051884210D14FF43050914908814FF40C
:103F4000285048814FF42C5088814FF4F07008803D
:103F50004FF4487048808AE08948808841F66311B0
:103F600088420DD12C20864908812B2048812A20A7
:103F700088814FF4F07008804FF44870488076E0F4
:103F800022207F49088120204881212088816EE0FD
:103F900001207B4988714FF4A0700880F020488090
:103FA0000846808849F24131884205D074488088AB
:103FB00045F21031884207D12C20714908812A200E
:103FC00048812B2088813FE06D48808846F60401B7
:103FD000884207D12C206A4908812B2048812A2059
:103FE000888131E06648808845F21051884210D1BE
:103FF0004FF43050624908814FF4285048814FF403
:104000002C5088814FF4487008804FF4F07048803D
:104010001AE05B48808841F6631188420DD12C205C
:10402000574908812A2048812B2088814FF4487005
:1040300008804FF4F070488006E022205049088143
:1040400021204881202088814D48808846F604013F
:10405000884205D04A48808845F21031884206D10E
:104060004FF4F070464908804FF4A070488000205B
:10407000FFF7B3FC10BD2DE9F04F86B004460D46A6
:104080009046994604EB0800401E86B205EB0900F5
:10409000401E87B23A48808849F24131884215D0A3
:1040A0003748808845F2103188420FD034488088E4
:1040B00046F60401884209D031488079012826D18A
:1040C0002F48808841F66311884220D12C494889C5
:1040D000FFF754FA2012FFF75AFAE0B2FFF757FA47
:1040E0003012FFF754FAF0B2FFF751FA24498889E9
:1040F000FFF744FA2812FFF74AFAE8B2FFF747FA47
:104100003812FFF744FAF8B2FFF741FAC1E01C4851
:10411000808841F6631188423DD119480088A0EBA0
:104120000800001B84B205EB0900401E1FFA80F94D
:1041300013494889FFF722FA2012FFF728FAE0B264
:10414000FFF725FA04EB0801491EC1F30F20FFF722
:104150001EFA04EB0801491EC8B2FFF718FA084915
:104160008889FFF70BFA2812FFF711FAE8B2FFF778
:104170000EFA4FEA2920FFF70AFA09F0FF0007E0DC
:104180001C0100207E00006C666666666666044060
:10419000FFF7FDF97DE0FE48808845F21051884226
:1041A00044D1FB494889FFF7E9F92012FFF7EFF9FD
:1041B000F7494989491C88B2FFF7E0F9E0B2FFF7F7
:1041C000E6F9F3494989891C88B2FFF7D7F930121B
:1041D000FFF7DDF9EE494989C91C88B2FFF7CEF92E
:1041E000F0B2FFF7D4F9EA498889FFF7C7F9281236
:1041F000FFF7CDF9E6498989491C88B2FFF7BEF976
:10420000E8B2FFF7C4F9E2498989891C88B2FFF74F
:10421000B5F93812FFF7BBF9DD498989C91C88B2A5
:10422000FFF7ACF9F8B2FFF7B2F932E0D84880797D
:1042300001280ED1AA46BB46D5480088801B401EE7
:1042400080B20190D2480088001B401E80B20090CE
:1042500003E0A246B34601950097502005905120F7
:104260000490522003905320029051460598FFF786
:10427000A0F959460498FFF79CF901990398FFF7B4
:1042800098F900990298FFF794F929462046FFF71C
:10429000BFF906B0BDE8F08F70B504460026BC48F3
:1042A000058840884543BA48808846F6040188421C
:1042B00016D1B7488079012812D10020B4498871FD
:1042C0002A2048812B20888100210846FFF7A0F989
:1042D0000120AF4988712B2048812A20888103E082
:1042E00000210846FFF794F9FFF775F9002602E070
:1042F000A8480480761CAE42FAD370BD00B5A1B0C8
:104300000020209001217A20FDF724FB012108469E
:10431000FDF758FB4FF400401E9001208DF87C0003
:1043200000208DF87E0002208DF87D0001208DF8A0
:104330007F001EA99848FDF76FF84CF233701E906D
:1043400002208DF87C0000208DF87E0003208DF87F
:104350007D0001208DF87F001EA99048FDF75CF8D4
:104360004FF680701E9002208DF87C0000208DF8A2
:104370007E0003208DF87D0001208DF87F001EA9AE
:104380008748FDF749F84FF480501E9002208DF8C1
:104390007C0000208DF87E0003208DF87D00012038
:1043A0008DF87F001EA97F48FDF736F84FF4805046
:1043B0001E9002208DF87C0000208DF87E000320E6
:1043C0008DF87D0001208DF87F001EA97648FDF74D
:1043D00023F80C2200217148FDF7A9F80C220121D5
:1043E0006E48FDF7A4F80C2204216C48FDF79FF8F5
:1043F0000C2205216948FDF79AF80C22082167482C
:10440000FDF795F80C2209216448FDF790F80C227D
:104410000A216248FDF78BF80C220E215F48FDF758
:1044200086F80C220F215D48FDF781F80C22072148
:104430005B48FDF77CF80C2208215948FDF777F816
:104440000C2209215648FDF772F80C220A21544823
:10445000FDF76DF80C220B215148FDF768F80C228E
:1044600011464F48FDF763F80C220D214C48FDF72B
:104470005EF80C220E214A48FDF759F80C220F2154
:104480004748FDF754F80C2211464648FDF74FF80F
:104490000C2211464448FDF74AF80F2008900020EE
:1044A00009903C200A9000200B900C900D900E90EB
:1044B0000920019000200290082003900020049021
:1044C00005900690079006200F9000201090119004
:1044D00010201290002013901590149016901790B1
:1044E0004FF480501890002019904FF480401A909B
:1044F00000201B9008A81C9001A81D900FA8FCF795
:104500003CFC01210620FCF7C3FC3220FEF79EFC98
:1045100001210020FFF74DF83220FEF797FC002024
:10452000FFF74EF81A49888008468088FF280ADB82
:10453000084680884FF6FF71884204D0144880886E
:10454000B0F5134F7ED1D320FFF718F8FFF729F805
:104550000F498880FFF725F80D498880FFF721F87B
:104560000B498880084680884FF6FF7101EA0020D9
:1045700007498880FFF715F80549898808430449E9
:1045800088800846808849F2413188425AD00DE03F
:104590001C0100208000006C00040240000C02405E
:1045A000001002400014024000180240BF20FEF735
:1045B000E5FFFEF7F6FFFE498880FEF7F2FFFC49B3
:1045C0008880FEF7EEFFFA498880FEF7EAFFF84997
:1045D0008880084680884FF6FF7101EA0020F44980
:1045E0008880FEF7DEFFF24989880843F049888019
:1045F0000846808846F6040188427AD0D420FEF727
:10460000BDFFFEF7CEFFEA498880FEF7CAFFE84902
:104610008880FEF7C6FFE6498880084680884FF606
:10462000FF7101EA0020E2498880FEF7BAFFE04905
:1046300089880843DE4988800846808845F2103121
:10464000884200E055E054D04FF45A40FEF796FF00
:10465000FEF7A7FFD64988804FF45B40FEF78EFF38
:10466000FEF79FFFD2498880084680884FF6FF7189
:1046700001EA0020CE4988804FF45C40FEF77EFFBF
:10468000FEF78FFFCA4989880843C94988800846D0
:104690008088B0F5004F02D145F210508880C448A0
:1046A000808845F21051884223D0A120FEF766FF92
:1046B000FEF777FFBE498880FEF773FFBC4988800C
:1046C000084680884FF6FF7101EA0020B8498880CB
:1046D000FEF767FFB64989880843B54988800846D0
:1046E000808845F26171884203D141F66310B04978
:1046F0008880AF48808849F24131884211D0AC4867
:10470000808845F2103188420BD0A948808845F254
:104710001051884205D0A648808841F6631188422E
:104720001DD1A448006820F00F004FF02041C1F8CF
:104730001C010846D0F81C0120F47060C1F81C016F
:104740000846D0F81C0140F00300C1F81C010846DF
:10475000D0F81C0140F40070C1F81C0128E0944816
:10476000808846F60401884205D0914880884CF242
:10477000055188421CD18F48006820F00F004FF08F
:104780002041C1F81C010846D0F81C0120F47060DB
:10479000C1F81C010846D0F81C0140F00A00C1F81D
:1047A0001C010846D0F81C0140F44060C1F81C010F
:1047B0007F48818880A004F013FA7D48808849F200
:1047C000413188427ED1CF20FEF7D8FE0020FEF78F
:1047D000DEFEC120FEF7DBFE3020FEF7D8FEED2026
:1047E000FEF7CCFE6420FEF7D2FE0320FEF7CFFEDC
:1047F0001220FEF7CCFE8120FEF7C9FEE820FEF76E
:10480000BDFE8520FEF7C3FE1020FEF7C0FE7A2015
:10481000FEF7BDFECB20FEF7B1FE3920FEF7B7FE56
:104820002C20FEF7B4FE0020FEF7B1FE3420FEF788
:10483000AEFE0220FEF7ABFEF720FEF79FFE202023
:10484000FEF7A5FEEA20FEF799FE0020FEF79FFE88
:104850000020FEF79CFEC020FEF790FE1B20FEF716
:1048600096FEC120FEF78AFE0120FEF790FEC520CD
:10487000FEF784FE3020FEF78AFE3020FEF787FE2A
:10488000C720FEF77BFEB720FEF781FE3620FEF73D
:1048900075FE4820FEF77BFE3A20FEF76FFE55209E
:1048A000FEF775FEB120FEF769FE0020FEF76FFEF1
:1048B0001A20FEF76CFEB620FEF760FE0A20FEF717
:1048C00066FE00E0A5E0A220FEF761FEF220FEF702
:1048D00055FE0020FEF75BFE2620FEF74FFE01206E
:1048E000FEF755FEE020FEF749FE0F20FEF74FFED3
:1048F0002A20FEF74CFE2820FEF749FE0820FEF78E
:1049000046FE0E20FEF743FE0820FEF740FE542030
:10491000FEF73DFEA920FEF73AFE4320FEF737FEE4
:104920000A20FEF734FE0F20FEF731FE0020FEF7CE
:104930002EFE0020FEF72BFE0020FEF728FE0020B2
:10494000FEF725FEE120FEF719FE0020FEF71FFE10
:104950001520FEF71CFE1720FEF719FE0720FEF7B4
:1049600016FE1120FEF713FE0620FEF710FE2B2088
:10497000FEF70DFE5620FEF70AFE3C20FEF707FE6E
:104980000520FEF704FE1020FEF701FE0F20FEF7C3
:10499000FEFD3F20FEF7FBFD3F20FEF7F8FD0F2058
:1049A000FEF7F5FD2B20FEF7E9FD00200CE00000EE
:1049B0001C0100201C0100A0204C43442049443A23
:1049C00025780D0A00000000FEF7E1FD0020FEF74B
:1049D000DEFD0120FEF7DBFD3F20FEF7D8FD2A209B
:1049E000FEF7CCFD0020FEF7D2FD0020FEF7CFFD44
:1049F0000020FEF7CCFDEF20FEF7C9FD1120FEF7E9
:104A0000BDFD7820FEF722FA2920FEF7B7FD03F05E
:104A10001DB9FE48808846F6040188427ED11120E7
:104A2000FEF7ACFD1420FEF711FAD020FEF7A6FD2C
:104A30000720FEF7ACFD4220FEF7A9FD1D20FEF782
:104A4000A6FDD120FEF79AFD0020FEF7A0FD1A205A
:104A5000FEF79DFD0920FEF79AFDD220FEF78EFDA0
:104A60000120FEF794FD2220FEF791FDC020FEF705
:104A700085FD1020FEF78BFD3B20FEF788FD002012
:104A8000FEF785FD0220FEF782FD1120FEF77FFD77
:104A9000C520FEF773FD0320FEF779FDC820FEF761
:104AA0006DFD0020FEF773FD2520FEF770FD21202F
:104AB000FEF76DFD0520FEF76AFD0020FEF767FD9D
:104AC0000A20FEF764FD6520FEF761FD2520FEF754
:104AD0005EFD7720FEF75BFD5020FEF758FD0F20AE
:104AE000FEF755FD0020FEF752FDF820FEF746FDCB
:104AF0000120FEF74CFDFE20FEF740FD0020FEF7F2
:104B000046FD0220FEF743FD2020FEF737FD36204C
:104B1000FEF734FD0820FEF73AFD00E02AE03A20D7
:104B2000FEF72CFD5520FEF732FD2B20FEF726FD6B
:104B30000020FEF72CFD0020FEF729FD0120FEF7E6
:104B400026FD3F20FEF723FD2A20FEF717FD00205B
:104B5000FEF71DFD0020FEF71AFD0120FEF717FDF0
:104B6000DF20FEF714FD7820FEF770F92920FEF70C
:104B700005FD4CE7A548808845F21031884240F099
:104B80007C87ED20FEF7FAFC0120FEF700FDFE20F9
:104B9000FEF7FDFCEE20FEF7F1FCDE20FEF7F7FC51
:104BA0002120FEF7F4FCF120FEF7E8FC0120FEF7DF
:104BB000EEFCDF20FEF7E2FC1020FEF7E8FCC4204C
:104BC000FEF7DCFC8F20FEF7E2FCC620FEF7D6FCE9
:104BD0000020FEF7DCFCE220FEF7D9FCE220FEF725
:104BE000D6FCE220FEF7D3FCBF20FEF7C7FCAA20CC
:104BF000FEF7CDFCB020FEF7C1FC0D20FEF7C7FC90
:104C00000020FEF7C4FC0D20FEF7C1FC0020FEF7DB
:104C1000BEFC1120FEF7BBFC0020FEF7B8FC1920FB
:104C2000FEF7B5FC0020FEF7B2FC2120FEF7AFFC3A
:104C30000020FEF7ACFC2D20FEF7A9FC0020FEF7BB
:104C4000A6FC3D20FEF7A3FC0020FEF7A0FC5D20A3
:104C5000FEF79DFC0020FEF79AFC5D20FEF797FC16
:104C60000020FEF794FCB120FEF788FC8020FEF7C0
:104C70008EFC0020FEF78BFC8B20FEF788FC0020CA
:104C8000FEF785FC9620FEF782FC0020FEF77FFCF5
:104C9000B220FEF773FC0020FEF779FC0020FEF73F
:104CA00076FC0220FEF773FC0020FEF770FC032068
:104CB000FEF76DFC0020FEF76AFCB320FEF75EFCF9
:104CC0000020FEF764FC0020FEF761FC0020FEF7E8
:104CD0005EFC0020FEF75BFC0020FEF758FC002085
:104CE000FEF755FC0020FEF752FC0020FEF74FFCBB
:104CF0000020FEF74CFC0020FEF749FC0020FEF7E8
:104D000046FC0020FEF743FC0020FEF740FC00209C
:104D1000FEF73DFC0020FEF73AFC0020FEF737FCD2
:104D20000020FEF734FC0020FEF731FC0020FEF7E7
:104D30002EFC0020FEF72BFC0020FEF728FC0020B4
:104D4000FEF725FC0020FEF722FC0020FEF71FFCEA
:104D5000B420FEF713FC8B20FEF719FC0020FEF7B1
:104D600016FC9620FEF713FC0020FEF710FCA12095
:104D7000FEF70DFC0020FEF70AFCB520FEF7FEFB57
:104D80000220FEF704FC0020FEF701FC0320FEF7E2
:104D9000FEFB0020FEF7FBFB0420FEF7F8FB0020E3
:104DA000FEF7F5FBB620FEF7E9FB0020FEF7EFFB70
:104DB0000020FEF7ECFBB720FEF7E0FB0020FEF73B
:104DC000E6FB0020FEF7E3FB3F20FEF7E0FB0020C0
:104DD000FEF7DDFB5E20FEF7DAFB0020FEF7D7FBD7
:104DE0006420FEF7D4FB0020FEF7D1FB8C20FEF7F9
:104DF000CEFB0020FEF7CBFBAC20FEF7C8FB00206B
:104E0000FEF7C5FBDC20FEF7C2FB01E01C01002021
:104E10000020FEF7BCFB7020FEF7B9FB0020FEF778
:104E2000B6FB9020FEF7B3FB0020FEF7B0FBEB20B3
:104E3000FEF7ADFB0020FEF7AAFBDC20FEF7A7FB88
:104E40000020FEF7A4FBB820FEF798FB0020FEF739
:104E50009EFB0020FEF79BFB0020FEF798FB002046
:104E6000FEF795FB0020FEF792FB0020FEF78FFB7C
:104E70000020FEF78CFB0020FEF789FBBA20FEF72E
:104E80007DFB2420FEF783FB0020FEF780FB002043
:104E9000FEF77DFB0020FEF77AFBC120FEF76EFBDC
:104EA0002020FEF774FB0020FEF771FB5420FEF774
:104EB0006EFB0020FEF76BFBFF20FEF768FB002077
:104EC000FEF765FBC220FEF759FB0A20FEF75FFBE9
:104ED0000020FEF75CFB0420FEF759FB0020FEF7E4
:104EE00056FBC320FEF74AFB3C20FEF750FB002098
:104EF000FEF74DFB3A20FEF74AFB0020FEF747FB8A
:104F00003920FEF744FB0020FEF741FB3720FEF777
:104F10003EFB0020FEF73BFB3C20FEF738FB002069
:104F2000FEF735FB3620FEF732FB0020FEF72FFBA5
:104F30003220FEF72CFB0020FEF729FB2F20FEF786
:104F400026FB0020FEF723FB2C20FEF720FB002091
:104F5000FEF71DFB2920FEF71AFB0020FEF717FBCA
:104F60002620FEF714FB0020FEF711FB2420FEF79D
:104F70000EFB0020FEF70BFB2420FEF708FB0020B1
:104F8000FEF705FB2320FEF702FB0020FEF7FFFAE9
:104F90003C20FEF7FCFA0020FEF7F9FA3620FEF777
:104FA000F6FA0020FEF7F3FA3220FEF7F0FA0020BE
:104FB000FEF7EDFA2F20FEF7EAFA0020FEF7E7FAF7
:104FC0002C20FEF7E4FA0020FEF7E1FA2920FEF794
:104FD000DEFA0020FEF7DBFA2620FEF7D8FA0020E2
:104FE000FEF7D5FA2420FEF7D2FA0020FEF7CFFA1A
:104FF0002420FEF7CCFA0020FEF7C9FA2320FEF7A2
:10500000C6FA0020FEF7C3FAC420FEF7B7FA622002
:10501000FEF7BDFA0020FEF7BAFA0520FEF7B7FA50
:105020000020FEF7B4FA8420FEF7B1FA0020FEF764
:10503000AEFAF020FEF7ABFA0020FEF7A8FA18202F
:10504000FEF7A5FA0020FEF7A2FAA420FEF79FFAC9
:105050000020FEF79CFA1820FEF799FA0020FEF7D0
:1050600096FA5020FEF793FA0020FEF790FA0C20F3
:10507000FEF78DFA0020FEF78AFA1720FEF787FA6E
:105080000020FEF784FA9520FEF781FA0020FEF753
:105090007EFAF320FEF77BFA0020FEF778FAE6208E
:1050A000FEF775FA0020FEF772FAC520FEF766FAE1
:1050B0003220FEF76CFA0020FEF769FA4420FEF772
:1050C00066FA0020FEF763FA6520FEF760FA00201A
:1050D000FEF75DFA7620FEF75AFA0020FEF757FA3F
:1050E0008820FEF754FA0020FEF751FAC620FEF79A
:1050F00045FA2020FEF74BFA0020FEF748FA172069
:10510000FEF745FA0020FEF742FA0120FEF73FFACB
:105110000020FEF73CFAC720FEF730FA0020FEF729
:1051200036FA0020FEF733FA0020FEF730FA0020AE
:10513000FEF72DFAC820FEF721FA0020FEF727FA25
:105140000020FEF724FA0020FEF721FA0020FEF7E7
:105150001EFAC920FEF712FA0020FEF718FA002006
:10516000FEF715FA0020FEF712FA0020FEF70FFAFC
:105170000020FEF70CFA0020FEF709FA0020FEF7E7
:1051800006FA0020FEF703FA0020FEF700FA0020DE
:10519000FEF7FDF90020FEF7FAF90020FEF7F7F917
:1051A0000020FEF7F4F90020FEF7F1F90020FEF7E9
:1051B000EEF90020FEF7EBF9E020FEF7DFF916200C
:1051C000FEF7E5F90020FEF7E2F91C20FEF7DFF913
:1051D0000020FEF7DCF92120FEF7D9F90020FEF7C8
:1051E000D6F93620FEF7D3F90020FEF7D0F9462095
:1051F000FEF7CDF90020FEF7CAF95220FEF7C7F9F5
:105200000020FEF7C4F96420FEF7C1F90020FEF784
:10521000BEF97A20FEF7BBF90020FEF7B8F98B2023
:10522000FEF7B5F90020FEF7B2F99920FEF7AFF9C5
:105230000020FEF7ACF9A820FEF7A9F90020FEF740
:10524000A6F9B920FEF7A3F90020FEF7A0F9C420C3
:10525000FEF79DF90020FEF79AF9CA20FEF797F9AC
:105260000020FEF794F9D220FEF791F90020FEF716
:105270008EF9D920FEF78BF90020FEF788F9E0209F
:10528000FEF785F90020FEF782F9F320FEF77FF99B
:105290000020FEF77CF9E120FEF770F91620FEF7FA
:1052A00076F90020FEF773F91C20FEF770F9002054
:1052B000FEF76DF92220FEF76AF90020FEF767F984
:1052C0003620FEF764F90020FEF761F94520FEF76D
:1052D0005EF90020FEF75BF95220FEF758F9002036
:1052E000FEF755F96420FEF752F90020FEF74FF95A
:1052F0007A20FEF74CF90020FEF749F98B20FEF7E3
:1053000046F90020FEF743F99920FEF740F9002006
:10531000FEF73DF9A820FEF73AF90020FEF737F92D
:10532000B920FEF734F90020FEF731F9C420FEF76A
:105330002EF90020FEF72BF9CA20FEF728F90020ED
:10534000FEF725F9D220FEF722F90020FEF71FF91B
:10535000D820FEF71CF90020FEF719F9E020FEF72F
:1053600016F90020FEF713F9F320FEF710F90020DC
:10537000FEF70DF9E220FEF701F90520FEF707F927
:105380000020FEF704F90B20FEF701F90020FEF7DC
:10539000FEF81B20FEF7FBF80020FEF7F8F834209B
:1053A000FEF7F5F80020FEF7F2F84420FEF7EFF8DC
:1053B0000020FEF7ECF84F20FEF7E9F80020FEF79A
:1053C000E6F86120FEF7E3F80020FEF7E0F8792028
:1053D000FEF7DDF80020FEF7DAF88820FEF7D7F8B0
:1053E0000020FEF7D4F89720FEF7D1F80020FEF752
:1053F000CEF8A620FEF7CBF80020FEF7C8F8B720BD
:10540000FEF7C5F80020FEF7C2F8C220FEF7BFF88D
:105410000020FEF7BCF8C720FEF7B9F80020FEF721
:10542000B6F8D120FEF7B3F80020FEF7B0F8D6208A
:10543000FEF7ADF80020FEF7AAF8DD20FEF7A7F88A
:105440000020FEF7A4F8F320FEF7A1F80020FEF7F5
:105450009EF8E320FEF792F80520FEF798F800206A
:10546000FEF795F80A20FEF792F80020FEF78FF875
:105470001C20FEF78CF80020FEF789F83320FEF799
:1054800086F80020FEF783F84420FEF780F800201D
:10549000FEF77DF85020FEF77AF80020FEF777F847
:1054A0006220FEF774F80020FEF771F87820FEF70E
:1054B0006EF80020FEF76BF88820FEF768F80020F1
:1054C000FEF765F89720FEF762F80020FEF75FF818
:1054D000A620FEF75CF80020FEF759F8B720FEF78B
:1054E00056F80020FEF753F8C220FEF750F80020CF
:1054F000FEF74DF8C720FEF74AF80020FEF747F800
:10550000D120FEF744F80020FEF741F8D520FEF741
:105510003EF80020FEF73BF8DD20FEF738F80020CB
:10552000FEF735F8F320FEF732F80020FEF72FF8EB
:10553000E420FEF723F80120FEF729F80020FEF70B
:1055400026F80120FEF723F80020FEF720F80220BD
:10555000FEF71DF80020FEF71AF82A20FEF717F8CC
:105560000020FEF714F83C20FEF711F80020FEF7AB
:105570000EF84B20FEF70BF80020FEF708F85D2030
:10558000FEF705F80020FEF702F87420FDF7FFFF94
:105590000020FDF7FCFF8420FDF7F9FF0020FDF758
:1055A000F6FF9320FDF7F3FF0020FDF7F0FFA220A8
:1055B000FDF7EDFF0020FDF7EAFFB320FDF7E7FF61
:1055C0000020FDF7E4FFBE20FDF7E1FF0020FDF71E
:1055D000DEFFC420FDF7DBFF0020FDF7D8FFCD2064
:1055E000FDF7D5FF0020FDF7D2FFD320FDF7CFFF59
:1055F0000020FDF7CCFFDD20FDF7C9FF0020FDF7FF
:10560000C6FFF320FDF7C3FF0020FDF7C0FFE52034
:10561000FDF7B4FF0020FDF7BAFF0020FDF7B7FF4C
:105620000020FDF7B4FF0020FDF7B1FF0220FDF7D9
:10563000AEFF0020FDF7ABFF2920FDF7A8FF0020FB
:10564000FDF7A5FF3C20FDF7A2FF0020FDF79FFF1F
:105650004B20FDF79CFF0020FDF799FF5D20FDF733
:1056600096FF0020FDF793FF7420FDF790FF0020C8
:10567000FDF78DFF8420FDF78AFF0020FDF787FFEF
:105680009320FDF784FF0020FDF781FFA220FDF7A6
:105690007EFF0020FDF77BFFB320FDF778FF0020A1
:1056A000FDF775FFBE20FDF772FF0020FDF76FFFCD
:1056B000C420FDF76CFF0020FDF769FFCD20FDF74A
:1056C00066FF0020FDF763FFD320FDF760FF002099
:1056D000FDF75DFFDC20FDF75AFF0020FDF757FFC7
:1056E000F320FDF754FF0020FDF751FFE620FDF702
:1056F00045FF1120FDF74BFF0020FDF748FF342048
:10570000FDF745FF0020FDF742FF5620FDF73FFF64
:105710000020FDF73CFF7620FDF739FF0020FDF764
:1057200036FF7720FDF733FF0020FDF730FF6620BE
:10573000FDF72DFF0020FDF72AFF8820FDF727FF4A
:105740000020FDF724FF9920FDF721FF0020FDF741
:105750001EFFBB20FDF71BFF0020FDF718FF99205F
:10576000FDF715FF0020FDF712FF6620FDF70FFF84
:105770000020FDF70CFF5520FDF709FF0020FDF785
:1057800006FF5520FDF703FF0020FDF700FF452031
:10579000FDF7FDFE0020FDF7FAFE4320FDF7F7FEC2
:1057A0000020FDF7F4FE4420FDF7F1FE0020FDF798
:1057B000EEFEE720FDF7E2FE3220FDF7E8FE0020D6
:1057C000FDF7E5FE5520FDF7E2FE0020FDF7DFFEC8
:1057D0007620FDF7DCFE0020FDF7D9FE6620FDF700
:1057E000D6FE0020FDF7D3FE6720FDF7D0FE002097
:1057F000FDF7CDFE6720FDF7CAFE0020FDF7C7FECE
:105800008720FDF7C4FE0020FDF7C1FE9920FDF7BB
:10581000BEFE0020FDF7BBFEBB20FDF7B8FE00205A
:10582000FDF7B5FE9920FDF7B2FE0020FDF7AFFEB3
:105830007720FDF7ACFE0020FDF7A9FE4420FDF720
:10584000A6FE0020FDF7A3FE5620FDF7A0FE0020D7
:10585000FDF79DFE2320FDF79AFE0020FDF797FE41
:105860003320FDF794FE0020FDF791FE4520FDF763
:105870008EFE0020FDF78BFEE820FDF77FFE002066
:10588000FDF785FE0020FDF782FE9920FDF77FFEE3
:105890000020FDF77CFE8720FDF779FE0020FDF754
:1058A00076FE8820FDF773FE0020FDF770FE77205E
:1058B000FDF76DFE0020FDF76AFE6620FDF767FE2E
:1058C0000020FDF764FE8820FDF761FE0020FDF753
:1058D0005EFEAA20FDF75BFE0020FDF758FEBB2010
:1058E000FDF755FE0020FDF752FE9920FDF74FFE13
:1058F0000020FDF74CFE6620FDF749FE0020FDF775
:1059000046FE5520FDF743FE0020FDF740FE5520E2
:10591000FDF73DFE0020FDF73AFE4420FDF737FE7F
:105920000020FDF734FE4420FDF731FE0020FDF796
:105930002EFE5520FDF72BFE0020FDF728FEE92066
:10594000FDF71CFEAA20FDF722FE0020FDF71FFE3A
:105950000020FDF71CFE0020FDF719FE0020FDF7DA
:105960000DFEAA20FDF713FECF20FDF707FE002055
:10597000FDF70DFE0020FDF70AFE0020FDF707FEF3
:105980000020FDF704FE0020FDF701FE0020FDF7DA
:10599000FEFD0020FDF7FBFD0020FDF7F8FD0020D7
:1059A000FDF7F5FD0020FDF7F2FD0020FDF7EFFD0E
:1059B0000020FDF7ECFD0020FDF7E9FD0020FDF7DC
:1059C000E6FD0020FDF7E3FD0020FDF7E0FD0020EF
:1059D000FDF7DDFDF020FDF7D1FD0020FDF7D7FD3F
:1059E0005020FDF7D4FD0020FDF7D1FD0020FDF78C
:1059F000CEFD0020FDF7CBFDF320FDF7BFFD00201D
:105A0000FDF7C5FDF920FDF7B9FD0620FDF7BFFD47
:105A10001020FDF7BCFD2920FDF7B9FD0020FDF7A2
:105A2000B6FD3A20FDF7AAFD5520FDF7B0FD112087
:105A3000FDF7A4FD6420FDF709FA2920FDF79EFD7E
:105A40003520FDF79BFD0020FDF7A1FD5120FDF75E
:105A500095FDFF20FDF79BFD5320FDF78FFD2C20CA
:105A6000FDF795FD5520FDF789FD8220FDF78FFD9F
:105A70002C20FDF783FD02F0E9B8FE48808845F24E
:105A8000105188427ED155214FF47040FDF791FDB1
:105A9000AA214FF20100FDF78CFD52214FF20200C6
:105AA000FDF787FD08214FF20300FDF782FD01217C
:105AB0004FF20400FDF77DFD0D214FF43040FDF75E
:105AC00078FD0D214BF20100FDF773FD0D214BF226
:105AD0000200FDF76EFD34214FF43640FDF769FDFD
