:020000040800F2
:100000003805002021110008050F0008070F00081F
:100010000B0F00080F0F0008130F0008000000006E
:10002000000000000000000000000000170F0008A2
:10003000190F0008000000001B0F00081D0F00082A
:100040003B1100083B1100083B1100083B11000860
:100050003B1100083B110008910D00083B110008FE
:100060003B1100083B1100083B1100083B11000840
:100070003B1100083B1100083B1100083B11000830
:100080003B1100083B1100083B1100083B11000820
:100090003B1100083B1100083B1100087B0C0008D5
:1000A0003B1100083B1100083B1100083B11000800
:1000B0003B1100083B1100083B1100083B110008F0
:1000C0003B1100083B1100083B1100083B110008E0
:1000D0003B110008D70D00083B110008BD0E0008B9
:1000E0003B1100083B1100083B1100083B110008C0
:1000F0003B1100083B1100083B1100083B110008B0
:100100003B1100083B1100083B1100083B1100089F
:100110003B1100083B1100083B1100083B1100088F
:100120003B1100083B1100083B1100083B1100087F
:100130003B1100083B1100083B1100083B1100086F
:100140003B1100083B1100083B1100083B1100085F
:100150003B1100083B1100083B1100083B1100084F
:100160003B1100083B1100083B1100083B1100083F
:100170003B1100083B1100083B1100083B1100082F
:100180003B1100083B110008DFF80CD009F076FAAB
:1001900000480047790800083805002010B50246DD
:1001A0000520FE4B1B681BB900F12D0398B206E039
:1001B000FA4B08331B6813B900F15F0398B20129A9
:1001C0001CD1012A0ED1F64B1B680344F44C23606A
:1001D00023461B6841F27074A3422BD92346F04C8E
:1001E000236027E0EE4B1B681B1AED4C236023466F
:1001F0001B68052B1ED2002323601BE0012A0ED1B1
:10020000E84B1B680344E74C236023461B6841F21C
:100210007074A3420ED92346E24C23600AE0E14BFE
:100220001B681B1ADF4C236023461B68052B01D279
:100230000023236010BD10B502460120D74B1B6878
:1002400013B9031D98B206E0D44B08331B6813B9E9
:1002500000F1090398B2012919D1012A0BD1D24B1F
:100260001B880344D04C238023461B88632B27DD47
:100270006323238024E0CC4B1B881B1ACA4C2380A9
:1002800023461B88012B1BDA0123238018E0012A57
:100290000BD1C64B1B880344C44C238023461B88C8
:1002A000632B0DDD632323800AE0C04B1B881B1AE0
:1002B000BE4C238023461B88012B01DA01232380B7
:1002C00010BD10B502466420B44B1B681BB9A0F1E9
:1002D0005A0398B206E0B14B08331B6813B900F516
:1002E000617398B201291BD1012A0DD1B04B1B6853
:1002F0000344AF4C236023461B68AE4CA3422AD96B
:100300002346AB4C236026E0A94B1B681B1AA84C64
:10031000236023461B680A2B1DD20A2323601AE0A0
:10032000012A0DD1A44B1B680344A34C2360234630
:100330001B68A04CA3420ED923469F4C23600AE0C1
:100340009D4B1B681B1A9C4C236023461B680A2B81
:1003500001D20A23236010BD30B502460C460023AB
:100360000021254600BF10E003EB83004300505CF2
:10037000302806DB505C392803DC505C30380344FD
:1003800001E0002030BD481CC1B2A942ECDB184698
:10039000F8E770B504460E46B01EC1B2A01CFFF7C8
:1003A000DBFF0546002D03DB41F27070854200DD66
:1003B00070BD60783D2834D04FF400717F4801F063
:1003C000A1FB4FF480617D4801F09CFB642003F0A9
:1003D00035F84FF40071794801F092FB4FF48061D9
:1003E000764801F08DFB642003F028F84FF400718B
:1003F000724801F087FB4FF48061704801F082FB86
:10040000642003F01BF84FF400716C4801F078FB96
:100410004FF48061694801F073FB642003F00EF82B
:10042000C6E72078312802D15D4805603AE020789F
:10043000322802D15B48056034E04FF400715F4818
:1004400001F060FB4FF480615C4801F05BFB6420CD
:1004500002F0F4FF4FF40071584801F051FB4FF4E3
:100460008061564801F04CFB642002F0E7FF4FF436
:100470000071524801F046FB4FF480614F4801F093
:1004800041FB642002F0DAFF4FF400714B4801F0A9
:1004900037FB4FF48061494801F032FB642002F0E1
:1004A000CDFF85E700BF83E770B504460E46B01E5A
:1004B000C1B2A01CFFF750FF0546012D01DB632DE3
:1004C00000DD70BD60783D2834D04FF400713B48AA
:1004D00001F018FB4FF48061384801F013FB6420F1
:1004E00002F0ACFF4FF40071344801F009FB4FF407
:1004F0008061324801F004FB642002F09FFF4FF45A
:1005000000712E4801F0FEFA4FF480612B4801F093
:10051000F9FA642002F092FF4FF40071274801F0CD
:10052000EFFA4FF48061254801F0EAFA642002F006
:1005300085FFC6E72078312802D11B490D804DE0A8
:100540002078322802D119490D8047E04FF400711C
:100550001A4801F0D7FA4FF48061184801F0D2FA36
:10056000642002F06BFF4FF40071144801F0C8FAE8
:100570004FF48061114801F0C3FA642002F05EFF7D
:100580004FF400710D4801F0BDFA4FF480610B4843
:1005900001F0B8FA642002F051FF11E00802424273
:1005A000080000201400002004000020100000209B
:1005B0000000002040420F000C0000200014024008
:1005C0004FF40071FE4801F09BFA4FF48061FC4843
:1005D00001F096FA642002F031FF72E700BF70E785
:1005E00070B504460E46B01EC1B2A01CFFF7B4FEA3
:1005F00005460A2D02DBF348854200DD70BD6078B8
:100600003D2834D04FF40071ED4801F07BFA4FF4EF
:100610008061EB4801F076FA642002F00FFF4FF49E
:100620000071E74801F06CFA4FF48061E44801F092
:1006300067FA642002F002FF4FF40071E04801F015
:1006400061FA4FF48061DE4801F05CFA642002F048
:10065000F5FE4FF40071DA4801F052FA4FF4806170
:10066000D74801F04DFA642002F0E8FEC6E7207892
:10067000312802D1D44805603AE02078322802D1EE
:10068000D248056034E04FF40071CD4801F03AFAE9
:100690004FF48061CA4801F035FA642002F0CEFEC2
:1006A0004FF40071C64801F02BFA4FF48061C44842
:1006B00001F026FA642002F0C1FE4FF40071C04838
:1006C00001F020FA4FF48061BD4801F01BFA64206C
:1006D00002F0B4FE4FF40071B94801F011FA4FF482
:1006E0008061B74801F00CFA642002F0A7FE85E7AC
:1006F00000BF83E770B504460D46002620787628B3
:1007000005D1681EC1B2601CFFF76AFF46E0207881
:100710007A2805D1681EC1B2601CFFF7C5FE3DE016
:100720002078642805D1681EC1B2601CFFF731FE35
:1007300034E04FF40071A24801F0E4F94FF4806115
:100740009F4801F0DFF9642002F078FE4FF4007159
:100750009B4801F0D5F94FF48061994801F0D0F938
:10076000642002F06BFE4FF40071954801F0CAF965
:100770004FF48061924801F0C5F9642002F05EFEFA
:100780004FF400718E4801F0BBF94FF480618C4842
:1007900001F0B6F9642002F051FE70BD82238C484E
:1007A00002688C4801888848006808F044FBD2231E
:1007B00089480268894801888448006808F03BFB42
:1007C000874801788748007808F0DEF98548007886
:1007D000012808D17E4802687E4801887A4800686E
:1007E00002F044FF07E07C4802687C4801887748B3
:1007F000006802F03BFF75480168102008F063F8BC
:1008000076480188142008F05EF8734801681820C3
:1008100008F059F86C480168002008F054F86D4859
:100820000188042008F04FF869480168082008F0A2
:100830004AF8002619E06C48815D6C4802F08CFC97
:1008400000BF4021694802F037FD0028F9D0664812
:10085000815D674802F080FC00BF4021644802F0DF
:100860002BFD0028F9D0701CC6B2032EE3DB61A07B
:1008700008F016FF00BF90E71CB5002600270025F2
:1008800000244FF4A06000F05DFC02F0CFFEA82031
:1008900002F072FD08F028FC08F0D0FB03F05FFFC7
:1008A00007F054FF5648828856A1594808F008FFBF
:1008B00023E058A010210B46C822CDE900103C21AE
:1008C000142007F0A2FE4FF4FA7002F0B7FD56A014
:1008D00010210B46C822CDE900103C21142007F05E
:1008E00094FE4FF4FA7002F0A9FD5448006808B96C
:1008F000012000E000205149086007F0AAFF00280D
:10090000D7D14FA010210B46C822CDE900103C21C1
:10091000142007F07AFE0C2007F0F1FFC6B2AA2ED1
:1009200022D1002007F0EBFF27490860042007F0E0
:10093000E6FF28490880082007F0E1FF2449086005
:10094000102007F0DCFF21490860142007F0D7FFD2
:1009500022490880182007F0D2FF1F4908601C2098
:1009600007F0CDFF1F4908701E480078384908700D
:10097000822317480268174801881348006808F066
:100980005AFAD22314480268144801880F480068B4
:1009900008F051FA124801781248007808F0F4F88B
:1009A00002F06AFF0F480078012853D10848026816
:1009B000084801880448006802F058FE52E0000030
:1009C0000014024040420F00000000200C000020F4
:1009D0000800002004000020140000201000002067
:1009E00019000020180000201E0000200010014007
:1009F000004800400D0A0D0A0D0A0D0A0000000013
:100A00001C0100204C43442049443A25303458000E
:100A10002A010020323443303220436865636B2062
:100A20004661696C65642100506C656173652043A3
:100A30006865636B2120202020202000A482424290
:100A40003234433032205265616479210000000065
:100A500022000020F6480268F6480188F64800683F
:100A600002F004FE08F08EFA02F018FD04E1F348EB
:100A700001F000FDC0F34700F1490870182004237D
:100A80000090084602784FF4C871282007F003FD53
:100A9000EC48008800F4004000282DD0E948057893
:100AA000E9A008F0FDFD002419E0EC48015DEC48E8
:100AB00002F052FB00BF4021E94802F0FDFB002894
:100AC000F9D0E648015DE74802F046FB00BF40214F
:100AD000E44802F0F1FB0028F9D0601CC4B2AC423B
:100AE000E3DBAFF2EC0008F0DBFD2946DB48FFF763
:100AF00001FE0020D3490880DB480078DB490978F3
:100B0000884209D0D8480178D948007808F03CF8E4
:100B1000D5480078D5490870C9480078D549097882
:100B200088427FD0C6480078D2490978884201DDE2
:100B3000012708E0C2480078CE490978884201DAE6
:100B4000002700E00427C8480078012804D00228C4
:100B500008D0032812D10BE0C54801783846FFF7CA
:100B6000B0FB0BE0C24801783846FFF764FB05E0B4
:100B7000BF4801783846FFF711FB00BF00BFBC48F3
:100B80000078012824D18223BB480268BB48018831
:100B9000BB48006808F04FF9B9480168002007F029
:100BA00092FEB6480188042007F08DFEB248016825
:100BB000082007F088FEB0480268B0480188B048B5
:100BC000006802F053FDAA210C2007F07CFE23E010
:100BD000D22397480268974801889748006808F030
:100BE0002AF995480168102007F06DFE91480188A8
:100BF000142007F068FE8E480168182007F063FE95
:100C00008B4802688B4801888B48006802F02EFDF3
:100C1000AA210C2007F057FE89480078954900E08A
:100C200000E008709248007896490978884223D0FD
:100C30008F480078012808D18F4802688F480188C2
:100C40008F48006802F012FD07E079480268794891
:100C500001887948006802F009FD854801781C2068
:100C600007F031FE82480078864908707E48017896
:100C70007F48007807F088FFF9E610B5202000F0E3
:100C800045FB00287DD0052002F0D8FB7E48006897
:100C9000002874D174480078401C734908700846D5
:100CA0000078042801D101200870784800680028E5
:100CB00065D1032002F0C2FB7448006800285ED1B1
:100CC0004EF660206E49086032206C490880C820CA
:100CD000694908604EF278605749086032205549EA
:100CE000088096205249086061480078012808D1A0
:100CF00061480268614801886148006802F0B6FCFA
:100D000007E04B4802684B4801884B48006802F0F6
:100D1000ADFC82235848026858480188584800684A
:100D200008F089F8D22342480268424801884248C4
:100D3000006808F080F840480168102007F0C3FD03
:100D40003C480188142007F0BEFD3948016818208E
:100D500007F0B9FD4A480168002007F0B4FD474894
:100D60000188042007F0AFFD43480168082007F020
:100D7000AAFD3D4801783E48007807F005FF1420A1
:100D800000E004E002F05AFB202000F0CAFA10BD97
:100D900010B5012000F0BAFAE0B1052002F04EFBD8
:100DA0003B480068012812D131480078012803D15E
:100DB00002202F49087002E001202D4908703548B3
:100DC000006808B9012000E00020324908600120D5
:100DD00000F0A7FA10BD10B540F22551204802F0EE
:100DE00081FA012869D11E4802F0BAF9C4B2154847
:100DF000008800F40040D0B91248008800F4804018
:100E000060B10A2C06D10F48008840F400400D491B
:100E1000088052E000200B4908804EE00D2C3BD1A9
:100E20000848008840F480400649088045E044E0D6
:100E300014000020100000200C00002000080040DA
:100E40001A0000201C0000200D0AB7A2CBCDB5C4AB
:100E5000D0C5CFA2CEAAA3BA0D0A0000540000202C
:100E6000001001400048004019000020230000202D
:100E700018000020210000200800002004000020AD
:100E80000000002022000020148240420C02424256
:100E900000024042A882424217480088C0F30D0079
:100EA00016490C5414480088401C13490880084611
:100EB0000088C82801DB0020088010BD10B540F272
:100EC00025510F4802F00EFA012813D10C4802F008
:100ED00047F9C4B208480088C0F30D0007490C5414
:100EE00005480088401C044908800846008840F4F2
:100EF0000040088010BD00001C00002054000020AD
:100F000000480040704700BFFEE700BFFEE700BF9B
:100F1000FEE700BFFEE7704770477047704700006C
:100F20000CB50020019000907248006840F48030B9
:100F30007049086000BF6F48006800F400300090FE
:100F40000198401C0190009818B90198B0F5A04F85
:100F5000F1D16848006800F4003010B10120009021
:100F600001E0002000900098012846D161484030FF
:100F7000006840F080505F49403108605E4800687A
:100F800040F440405C4908605A48083000685949BC
:100F9000083108600846006840F4004008600846D0
:100FA000006840F4A05008605448091F0860081FFA
:100FB000006840F08070091F086000BF4D4800685D
:100FC00000F000700028F9D040F205704C4908602C
:100FD00048480830006820F003004649083108609E
:100FE0000846006840F00200086000BF4148083031
:100FF000006800F00C000828F8D10CBD10B53D4881
:10100000006840F001003B49086000203949083180
:101010000860384800683B490840364908603A484B
:10102000091D0860081F006820F48020091F08605F
:10103000002030490C310860FFF772FF4FF000606C
:101040003249086010BD70B5002000220223002440
:101050000221284D08352D6805F00C0020B1042828
:1010600006D0082834D107E0294D2A4E356033E0F8
:10107000294D284E35602FE01E4D2D1D2D68C5F3DE
:1010800080541C4D2D1D2D6805F03F0154B1224D9B
:10109000B5FBF1F5174E361D3668C6F3881605FB0D
:1010A00006F209E01A4DB5FBF1F5124E361D366811
:1010B000C6F3881605FB06F20E4D2D1D2D68C5F3EF
:1010C00001456D1C6B00B2FBF3F5124E356003E079
:1010D0000F4D104E356000BF00BF064D08352D681E
:1010E000C5F303150D4E705D0A4D2D68C540094EC0
:1010F000356070BD00380240007000400854400761
:10110000003C0240FFFFF6FE1030002408ED00E036
:101110000024F4002400002000127A00280000209F
:101120000648804706480047FEE7FEE7FEE7FEE781
:10113000FEE7FEE7FEE7FEE7FEE7FEE7FD0F00083D
:101140008901000832490143324A1160704770B585
:10115000002100230F22C4781CB32E4C246804F411
:10116000E064C4F5E064C4F30721C1F10404E3B210
:101170000A4144789C40E1B28478144021430C0732
:10118000210E254C05786155047804F01F050124D3
:10119000AC4005786D11AD0005F1E025C5F80041C2
:1011A00009E0047804F01F050124AC401B4D0678CB
:1011B000761145F8264070BD194A0A400243154B86
:1011C0001B1F1A60704739B1124A121D1268024380
:1011D000104B1B1D1A6006E00E4A121D1268824356
:1011E0000C4B1B1D1A607047042808D14FF0E021FA
:1011F000096941F004014FF0E022116107E04FF06E
:10120000E021096921F004014FF0E02211617047EB
:101210000000FA050CED00E000E400E080E100E0F1
:1012200080FFFF1F002041490860091D0860091D5B
:101230000860091D08603E483C4914310860704749
:1012400000213A498279002A3AD00A461268036896
:101250009A430B461A600A1D126803689A430B1DD5
:101260001A60027911440A6803681A430A602F4A17
:101270000832126803689A432C4B08331A601A1D0F
:10128000126803689A43294B0C331A604279102A7A
:101290000ED11A1F126803681A43244B08331A60D0
:1012A0001A1D126803681A43204B0C331A600DE0B4
:1012B0001E49427911440A6803681A430A6005E02E
:1012C000027911440A6803689A430A607047002152
:1012D000016001710C214171002181717047134936
:1012E000103109680143114A1032116070470146FC
:1012F00000200E4A143212680A400AB1012000E0B0
:1013000000207047094914310860704701460020E9
:10131000064A143212680A400AB1012000E0002097
:10132000704702491431086070470000003C0140DA
:10133000FFFF7F0030B943F2DB028100A1F1C04121
:101340000A6005E043F2D2028100A1F1C0410A60C7
:101350006FF07042411C8900A1F1C0410A60810018
:10136000A1F1C041C1F804217047D0E90112114335
:10137000C2681143026911434269114382691143F2
:10138000C2691143026A1143426A1143826A1143DE
:10139000C26A1143026B114302689200A2F1C0427B
:1013A0001160816808290BD101688900A1F1C04151
:1013B000096841F0400201688900A1F1C0410A605A
:1013C000416B0968426B526841EA0211426B9268B4
:1013D00041EA0221426B928941EA0241426B128A40
:1013E00041EA0251426B127D41EA0261426B92690D
:1013F00011430268521C9200A2F1C0421160C16AFE
:10140000B1F5804F1BD1816B0968826B526841EA4C
:101410000211826B926841EA0221826B128A41EAD0
:101420000251826B127D41EA0261826B9269114323
:1014300002689200A2F1C042C2F8041107E06FF006
:10144000704201688900A1F1C041C1F804217047D0
:10145000002101600221416000218160C1600161C1
:1014600041618161C16101624FF480514162490073
:1014700081620021C1620163F84941638163704761
:1014800051B18200A2F1C042126842F00103820011
:10149000A2F1C042136009E08200A2F1C0421268CA
:1014A000EF4B1A408300A3F1C0431A607047102825
:1014B0000AD118214FF020421166402151664FF0A9
:1014C000FC319166D16610E01821E64A1160402196
:1014D0004FF02042C2F884104FF0FC31E14A08324C
:1014E00011604FF02042C2F88C10704730B50021D7
:1014F00000220023446844F0080485682C43C56832
:101500002C4305692C43456944EA4524856944EA2E
:101510004531C4692468C5696D6844EA0524C56914
:101520002D8944EA0544C5692D7B44EA0562046AB5
:101530002468056A6D6844EA0524056A2D8944EA31
:101540000544056A2D7B44EA05630468102C05D127
:101550004FF020442166A266E36608E0C14C21609A
:101560004FF02044C4F88820BE4C0C34236030BDBA
:1015700010210160002141608160C1600161416111
:101580008161FC21C2691160C2695160C2699160C8
:10159000C269D160026A1160026A5160026A916098
:1015A000026AD160704799B1102808D14FF02042EB
:1015B000126E42F004024FF020431A661DE0A94A61
:1015C000126842F004024FF02043C3F8802014E078
:1015D000102809D14FF02042126EA14BDB1E1A4099
:1015E0004FF020431A6608E09E4A12689C4BDB1EAF
:1015F0001A404FF02043C3F88020704799B110285B
:1016000008D14FF02042126E42F040024FF02043CA
:101610001A661DE0934A126842F040024FF02043E0
:10162000C3F8802014E0102809D14FF02042126E38
:101630008B4B3F3B1A404FF020431A6608E0894A23
:101640001268874B3F3B1A404FF02043C3F880207D
:10165000704701460020102903D14FF02042506FFF
:1016600002E0804A14321068704718207D4920310A
:10167000086000200906C1F8A4004FF0FC30794949
:1016800028310860091D0860091D0860704701685D
:1016900041F01001426841EA4221826841EA423148
:1016A000704A20321160C1680968C268526841EA14
:1016B0000221C268128941EA0241C268127B41EAF2
:1016C0000261684A2832116001690968026952683A
:1016D00041EA02210269128941EA02410269127B50
:1016E00041EA02615F4A2C3211604169096842692E
:1016F000526841EA02214269128941EA0241426983
:10170000127B41EA02614FF02042C2F8B0107047EC
:101710000021016041608160FC21C2681160C268E3
:101720005160C2689160C268D1600269116002694B
:101730005160026991600269D16042691160426939
:101740005160426991604269D160704748B1454932
:101750002031096841F004014FF02042C2F8A01086
:1017600009E04049203109683D4AD21E11404FF03E
:101770002042C2F8A010704710B5F2B1102807D16E
:101780004FF020435B6E0B434FF02044636632E022
:10179000B0F5807F08D1334B1B1D1B680B434FF006
:1017A0002044C4F8843026E02E4B24331B680B43BE
:1017B0004FF02044C4F8A4301DE0102807D14FF0AA
:1017C00020435B6E8B434FF02044636613E0B0F51B
:1017D000807F08D1234B1B1D1B688B434FF0204497
:1017E000C4F8843007E01F4B24331B688B434FF051
:1017F0002044C4F8A43010BD10B5024600200023D8
:10180000102A03D14FF02044636E09E0B2F5807FC7
:1018100003D1144C241D236802E0124C24342368A5
:1018200003EA01040CB1012000E0002010BD1028E3
:1018300007D14FF02042526E8A434FF020435A6640
:1018400019E0B0F5807F0FD1064A121D12688A4355
:101850004FF02043C3F884200DE00000749B000883
:10186000FEFF0F00800000A0234A12688A434FF059
:101870002043C3F8A420704770B50246002000231F
:1018800000240025102A03D14FF02046736E08E093
:10189000B2F5807F03D1184E203E336801E0164E2A
:1018A000336803EA010403EAD10514B10DB1012044
:1018B00000E0002070BD102808D14FF02042526E89
:1018C00022EAD1024FF020435A6614E0B0F5807F3F
:1018D00009D1094A203A126822EAD1024FF0204386
:1018E000C3F8842007E0044A126822EAD1024FF0CC
:1018F0002043C3F8A4207047A40000A010B50446FC
:101900009848844208D10121084600F086FB002156
:10191000012000F082FB76E09348844208D1012147
:10192000022000F07AFB0021022000F076FB6AE042
:101930008E48844208D10121042000F06EFB002172
:10194000042000F06AFB5EE08948844208D101214E
:10195000082000F062FB0021082000F05EFB52E04E
:101960008448844208D10121102000F056FB002158
:10197000102000F052FB46E07F48844208D101214C
:10198000202000F04AFB0021202000F046FB3AE036
:101990007A48844208D10121402000F03EFB00211A
:1019A000402000F03AFB2EE07548844208D1012126
:1019B000802000F032FB0021802000F02EFB22E08E
:1019C0007048844208D10121801500F026FB0021D7
:1019D000A01500F022FB16E06B48844208D10121DB
:1019E000401500F01AFB0021601500F016FB0AE01C
:1019F0006648844207D10121001500F00EFB00214A
:101A0000201500F00AFB10BDF0B50A4600210023A6
:101A1000002400BF3DE0012505FA01F3156805EA41
:101A200003049C4234D105684F000326BE40B543F1
:101A3000056015794E00B540066835430560157997
:101A4000012D02D01579022D16D185684F0003268D
:101A5000BE40B543856055794E00B5408668354334
:101A60008560456801268E40B54345604568967996
:101A70008E40B6B235434560C5684F000326BE4070
:101A8000B543C560D5794E00B540C6683543C560DD
:101A9000491C1029BFD3F0BD4FF6FF710160002132
:101AA000017141718171C171704708B54FF4803285
:101AB0000092009A0A430092009AC261C161009AA2
:101AC000C261C2690092C269009208BD024600204C
:101AD00013690B400BB1012000E000207047014664
:101AE000086980B270470246002053690B400BB171
:101AF000012000E0002070470146486980B270472D
:101B000001837047418370470AB1018300E041833C
:101B100070474161704742694A4042617047F0B581
:101B2000002300244D07ED0E02FA05F3CE1000F15C
:101B3000200555F826504E07F70E0F26BE40B54338
:101B4000CF1000F1200646F82750CE1000F12005F6
:101B500055F8265045EA0304CE1000F1200545F85B
:101B60002640F0BD00000240000402400008024090
:101B7000000C024000100240001402400018024015
:101B8000001C0240002002400024024000280240C5
:101B9000F948006840F00100F74908600020F64964
:101BA00008310860F4480068F4490840F2490860C8
:101BB000F348091D0860F348EF4984310860F04894
:101BC0001038091D0860EC48006820F48020EA49BC
:101BD00008600020E8490C310860E7498C31086052
:101BE00070470021E44A921C11701146087070473A
:101BF00010B501460022002300204A11012A02D11B
:101C0000DD4C236808E0022A03D1DB4C70342368E2
:101C100002E0D94C7434236801F01F02012494407F
:101C20001C400CB1012000E0002010BD38B50020A0
:101C300000900024002500BF3120FFF7D9FF0546A2
:101C40000098401C00900098B0F5A04F01D0002DE6
:101C5000F2D03120FFF7CCFF08B1012400E00024CE
:101C6000204638BD01460020C34A106820F0F80025
:101C700040EAC10010607047C34908607047002106
:101C8000BD4A703211701170012802D004280AD1A7
:101C900004E00121B84A7032117005E00521B64A0E
:101CA0007032117000E000BF00BF7047B749086094
:101CB000704770B5049C41EA82150126C6EB5306B5
:101CC00045EA0645054345EA0465AB4E361D3560D9
:101CD00070BDAD4908667047820142EA0172A64BA9
:101CE00084331A607047A8498866704710B583012D
:101CF00043EA016343EA02739F4C8834236010BDBA
:101D0000A14908677047A049C8647047024600208F
:101D1000994B0833186820F0EC6042EA010318433D
:101D2000954B08331860704702460020924B0833E9
:101D3000186820F0784042EA010318438E4B0833BC
:101D400018607047014600208B4A0832106820F066
:101D5000030008431060704787480830006800F0AF
:101D60000C00704701460020834A0832106820F0BA
:101D7000F000084310607047014600207E4A083298
:101D8000106820F4E05008431060704701460020BE
:101D9000794A0832106820F4604040EAC1001060BF
:101DA0007047F0B5002100220024022500260223FE
:101DB000714F08373F6807F00C0121B1042905D0A5
:101DC000082937D105E0724F076036E0714F076090
:101DD00033E0694F3F1D3F68C7F38056664F3F1D94
:101DE0003F6807F03F036EB16A4FB7FBF3F7DFF8C8
:101DF00088C10CF1040CDCF800C0CCF3881C07FB94
:101E00000CF40CE0624FB7FBF3F7DFF86CC10CF198
:101E1000040CDCF800C0CCF3881C07FB0CF4564F14
:101E20003F1D3F68C7F301477F1C7D00B4FBF5F7FA
:101E3000076002E0564F076000BF00BF4E4F0837F3
:101E40003F6807F0F0010909534F7A5C0768D740F3
:101E50004760494F08373F6807F4E051890A4E4F01
:101E60007A5C4768D7408760434F08373F6807F47C
:101E70006041490B484F7A5C4768D740C760F0BD66
:101E8000002100F44072B2F5407F0AD13A4A08328C
:101E9000116821F4F811414A02401143364A0832D0
:101EA0001160354A70321268C0F30B031A43324B8B
:101EB00070331A60704735494439086070473349B8
:101EC0004039086070473649086070470146002075
:101ED000294A8C32106820F01F004A1E1043264AFF
:101EE0008C321060704701460020234A8C32106803
:101EF00020F4F8504A1E40EA02201F4A8C3210603B
:101F00007047014600201C4A8C32106820F44010B3
:101F100008431060704701460020174A8C32106851
:101F200020F4400008431060704701460020124A28
:101F30008C32106820F44030084310607047194913
:101F40000860704739B10C4A3032126802430A4BBC
:101F500030331A6006E0084A303212688243064B7A
:101F600030331A607047F9B1034A343212680243C1
:101F7000014B34331A601CE000380240FFFFF6EAE0
:101F8000103000240030002000004742800E4742FD
:101F90000024F40000127A0038000020FFFCFF0F3C
:101FA0005C014742E01147428F4A126882438E4BE0
:101FB0001A60704739B18C4A121D126802438A4B6D
:101FC0001B1D1A6006E0884A121D12688243864B68
:101FD0001B1D1A60704739B1834A0C3212680243E4
:101FE000814B0C331A6006E07F4A0C321268824340
:101FF0007D4B0C331A60704739B17B4A103212683E
:102000000243794B10331A6006E0774A10321268A7
:102010008243754B10331A60704739B1724A243AC3
:1020200012680243704B243B1A6006E06E4A243A61
:10203000126882436C4B243B1A60704739B16A4A7C
:10204000203A12680243684B203B1A6006E0664A59
:10205000203A12688243644B203B1A60704739B1C2
:10206000614A1C3A126802435F4B1C3B1A6006E04F
:102070005D4A1C3A126882435B4B1C3B1A607047F6
:1020800039B1594A143A12680243574B143B1A604B
:1020900006E0554A143A12688243534B143B1A60C7
:1020A000704739B1504A103A126802434E4B103B08
:1020B0001A6006E04C4A103A126882434A4B103BC1
:1020C0001A60704739B1484A1C3212680243464BC5
:1020D0001C331A6006E0444A1C3212688243424BA9
:1020E0001C331A60704739B13F4A203212680243EC
:1020F0003D4B20331A6006E03B4A2032126882438F
:10210000394B20331A60704739B1374A243212688C
:102110000243354B24331A6006E0334A24321268F6
:102120008243314B24331A60704739B12E4A2C3226
:10213000126802432C4B2C331A6006E02A4A2C32D8
:1021400012688243284B2C331A60704739B1264AF3
:10215000303212680243244B30331A6006E0224AC0
:10216000303212688243204B30331A6070470128A6
:1021700008D11D493C31096841F008011A4A3C3236
:10218000116007E018493C31096821F00801164A3E
:102190003C321160704739B1134A273A1278024332
:1021A000114B273B1A7006E00F4A273A12788243F8
:1021B0000D4B273B1A7070470B484030006840F0C9
:1021C0008070094940310860704701460020064A86
:1021D000283A12680A400AB1012000E00020704746
:1021E00001492639087070473438024010B5012182
:1021F0008803FFF756FF00214FF48040FFF751FF9F
:1022000010BD1C49086070471B490862704730B513
:1022100000228B071C0F0F2303FA04F2154B08331F
:102220008C1053F824309343124C08348D1044F82A
:10223000253023468C1053F824308C07240F00FAE5
:1022400004F423430B4C08348D1044F8253030BD82
:102250000949DC3108607047084908607047002070
:1022600004492031096801F4807109B1012000E0BE
:102270000020704700380140000027420004274238
:1022800010B50446FE48844208D101210846FFF7F4
:1022900008FF00210120FFF704FF9DE0B4F1804F0B
:1022A00008D101210846FFF7EBFE00210120FFF7CE
:1022B000E7FE91E0F348844208D101210220FFF7B4
:1022C000DFFE00210220FFF7DBFE85E0EE488442BE
:1022D00008D101210420FFF7D3FE00210420FFF7DD
:1022E000CFFE79E0E948844208D101210820FFF7B8
:1022F000C7FE00210820FFF7C3FE6DE0E4488442DA
:1023000008D101211020FFF7BBFE00211020FFF7AC
:10231000B7FE61E0DF48844208D101212020FFF7A9
:10232000AFFE00212020FFF7ABFE55E0DA488442E3
:1023300008D101210220FFF7B4FE00210220FFF79F
:10234000B0FE49E0D548844209D101210804FFF7D5
:10235000A8FE00214FF48030FFF7A3FE3CE0D048F8
:10236000844209D101214804FFF79BFE00214FF46C
:102370000030FFF796FE2FE0CA48844209D10121C0
:102380008804FFF78EFE00214FF48020FFF789FEBE
:1023900022E0C548844208D101214020FFF770FEA9
:1023A00000214020FFF76CFE16E0C048844208D1AF
:1023B00001218020FFF764FE00218020FFF760FEEE
:1023C0000AE0BB48844207D101218015FFF758FE7F
:1023D0000021A015FFF754FE10BD00220288A84B73
:1023E00098420ED0AC4B98420BD0B0F1804F08D041
:1023F000A44B984205D0A44B984202D0A34B9842DC
:1024000004D14FF68F731A404B881A43A04B984261
:1024100007D0A04B984204D04FF6FF431A400B89D7
:102420001A4302804B68C3620B880385944B984221
:1024300002D0994B984201D18B7A03860123838283
:1024400070474FF0FF3141600021018001814180E0
:10245000817270470185828270470A460021018897
:102460004FF68F73194011430180704741627047E6
:10247000C16270470146486A70470146088D70473F
:1024800021B1028842F00202028004E002884FF685
:10249000FD731A400280704721B1028842F00402A5
:1024A000028004E002884FF6FB731A4002807047F6
:1024B00021B1028842F08002028004E002884FF6D7
:1024C0007F731A400280704702884FF6F7731A40F4
:1024D000028002880A430280704702884FF6FF4359
:1024E0001A40028002880A430280704721B10288A4
:1024F00042F00102028004E002884FF6FE731A40A7
:102500000280704770B5002400220023058C4FF62E
:10251000FE7635400584028C8388048B4FF68F75D8
:102520002C40B51E2C400D882C43751E2A408D89E9
:102530002A434D882A43524DA84202D0564DA84204
:1025400013D14FF6F7752A40CD892A434FF6FB7514
:102550002A408D882A434FF6FF652B404FF6FF55E2
:102560002B400D8A2B434D8A2B43838004838D6837
:102570004563028470BD70B5002400220023058CE1
:102580004FF6EF7635400584028C8388048B48F63D
:10259000FF752C404FF6FF452C400D884FF6FF7617
:1025A00006EA05252C434FF6DF752A408D8906EA99
:1025B00005152A434D8806EA05152A43304DA842E1
:1025C00002D0354DA8421DD14FF67F752A40CD89E6
:1025D0004FF6FF7606EA05152A434FF6BF752A40E7
:1025E0008D8806EA05152A434FF6FF352B404FF23A
:1025F000FF752B400D8A06EA85052B434D8A06EAB6
:1026000085052B43838004838D688563028470BDB8
:1026100070B5002400220023058C4FF6FF6635407C
:102620000584028C8388848B4FF68F752C404FF67F
:10263000FC752C400D882C434FF6FF552A408D89A0
:102640004FF6FF7606EA05252A434D8806EA05255A
:102650002A430B4DA84202D00F4DA84238D14FF269
:10266000FF752A40CD894FF6FF7606EA05252A43F5
:102670004FF6FF352A408D8806EA05252A4319E0E2
:10268000000001400004004000080040000C004031
:1026900000100040001400400004014000400140D0
:1026A000004401400048014000180040001C004068
:1026B000002000404EF6FF752B404DF6FF752B4075
:1026C0000D8A06EA05152B434D8A06EA05152B43AC
:1026D000838084838D68C563028470BD70B50022D9
:1026E00000230024058C4EF6FF7635400584038CCC
:1026F0008488828B48F6FF752A404FF6FF452A40B2
:102700000D884FF6FF7606EA05252A434DF6FF753C
:102710002B408D8906EA05352B434D8806EA0535A1
:102720002B43FE4DA84202D0FD4DA84208D14BF6E6
:10273000FF752C400D8A4FF6FF7606EA85152C436F
:10274000848082838D680564038470BD00210180CC
:102750004180818081608181C18101824182704795
:1027600070B50346002000241846183001258D401E
:10277000ACB21D8CA5431D8409B108290AD100EB18
:10278000610005684FF68F76354005600568154392
:1027900005600FE00D1FC5F34E052844056848F697
:1027A000FF763540056005684FF6FF7606EA02269B
:1027B0003543056070BD4163704781637047C163F5
:1027C0007047016470470A460021018B4FF68F73F2
:1027D00019401143018370470A460021018B48F6D6
:1027E000FF7319404FF6FF7303EA02231943018375
:1027F00070470A460021818B4FF68F7319401143B1
:10280000818370470A460021818B48F6FF73194087
:102810004FF6FF7303EA02231943818370470A4688
:102820000021018B4FF6F773194011430183704764
:102830000A460021018B4FF2FF7319404FF6FF73D8
:1028400003EA02231943018370470A460021818B62
:102850004FF6F77319401143818370470A460021F0
:10286000818B4FF2FF7319404FF6FF7303EA022387
:102870001943818370470A460021018B4FF6FB7391
:1028800019401143018370470A460021018B4FF61E
:10289000FF3319404FF6FF7303EA02231943018304
:1028A00070470A460021818B4FF6FB731940114394
:1028B000818370470A460021818B4FF6FF33194010
:1028C0004FF6FF7303EA02231943818370470A46D8
:1028D0000021018B4FF67F7319401143018370472C
:1028E0000A460021018BC1F30E014FF6FF7303EA84
:1028F00002231943018370470A460021818B4FF65A
:102900007F7319401143818370470A460021818BF0
:10291000C1F30E014FF6FF7303EA022319438183CB
:1029200070470A460021018C4FF6FD731940114390
:10293000018470470A460021018C4FF6F773194055
:102940001143018470470A460021018C4FF6DF7362
:1029500019404FF6FF7303EA0213194301847047CD
:102960000A460021018C4FF67F7319404FF6FF7322
:1029700003EA02131943018470470A460021018CBF
:102980004FF6FF5319404FF6FF7303EA0223194332
:10299000018470470A460021018C4FF2FF731940F1
:1029A0004FF6FF7303EA02231943018470470A4676
:1029B0000021018C4DF6FF7319404FF6FF7303EAB7
:1029C000023319430184704730B5002301248C4041
:1029D000A3B2048C9C430484048C02FA01F5ADB2CA
:1029E0002C43048430BD30B5002304248C40A3B2B2
:1029F000048C9C430484048C02FA01F5ADB22C4390
:102A0000048430BD828B4FF2FF331A408283828B65
:102A10004FF6FF7303EA01231A4382837047F0B530
:102A20000C461546002100220026078C4EF6FF7C3E
:102A300007EA0C070784818B028C4FF6FF7707EAC1
:102A4000043640F6FF4739404FF6FF7707EA05277F
:102A500039434FF6FF7707EA0337394345F6FF77E7
:102A60003A4046F480573A4381830284F0BD828B1A
:102A70004FF6F3731A408283828B0A438283704736
:102A8000F0B50C461546002100220026078C4FF6B3
:102A9000FF6C07EA0C070784818B028C4FF6FF77E7
:102AA00007EA04264FF60C7739404FF6FF7707EA1E
:102AB00003172F4339434FF2FF573A4046F48077CC
:102AC0003A4381830284F0BD028B4FF2FF331A40F8
:102AD0000283028B4FF6FF7303EA01231A4302833A
:102AE0007047F0B50C461546002100220026078CE1
:102AF0004FF6EF7C07EA0C070784018B028C4FF638
:102B0000FF7707EA041640F6FF4739404FF6FF7794
:102B100007EA033739434FF6FF7703E0000001402F
:102B20000004014007EA052739434FF65F773A4032
:102B300046F010073A4301830284F0BD028B4FF642
:102B4000F3731A400283028B0A4302837047F0B585
:102B50000C46154600210022068C4FF6FE773E40BB
:102B60000684018B028C4FF60C7631407E1C06EAFF
:102B700003162E4331434FF6F576324044F00106FA
:102B8000324301830284F0BD70B505460C462088AF
:102B900050B92389A28861882846FFF7D8FFE188C9
:102BA0002846FFF7CBFF25E0208804280AD1238997
:102BB000A28861882846FFF794FFE1882846FFF73E
:102BC00083FF17E0208808280AD12389A28861881A
:102BD0002846FFF755FFE1882846FFF748FF09E040
:102BE0002389A28861882846FFF719FFE1882846D3
:102BF000FFF708FF70BD0021018041800121818025
:102C00000021C180018170472DE9F04105460C4645
:102C100000260127608808B9022600E00026A08867
:102C2000012801D1022700E001272088A0B92389CB
:102C3000A28861882846FFF78AFFE1882846FFF7C7
:102C40007DFF23893A4631462846FFF74AFFE1884F
:102C50002846FFF739FF13E02389A28861882846B8
:102C6000FFF73FFFE1882846FFF72EFF23893A460A
:102C700031462846FFF76BFFE1882846FFF75EFFE5
:102C8000BDE8F0810146486B70470146886B70478C
:102C90000146C86B70470146086C70470A884B882C
:102CA0001A438B881A43CB881A430B891A434B89E2
:102CB0001A438B891A43A0F84420704700210180F1
:102CC00041808180C180018141818181704731B122
:102CD000B0F8442042F40042A0F8442005E0B0F8E7
:102CE0004420C2F30E02A0F84420704721B182882C
:102CF00042F00402828004E082884FF6FB731A409F
:102D00008280704721B1828842F00102828004E013
:102D100082884FF6FE731A40828070471AB1838909
:102D20000B43838102E083898B43838170478182D7
:102D3000704702460020138A0B400BB1012000E0CF
:102D400000207047CA430282704730B50246002017
:102D500000230024158A05EA0103958905EA010488
:102D600013B10CB1012000E0002030BDCA43028243
:102D7000704741EA0203A0F8483070471AB18389CE
:102D80000B43838102E083898B438381704721B1A8
:102D9000828842F00802828004E082884FF6F7734E
:102DA0001A408280704701894FF6F8721140018104
:102DB00070470A46002101894FF68F73194011436D
:102DC0000181704730B504460D4629462046FFF77D
:102DD000F0FF208940F00700208130BD2DE9F0414F
:102DE00004460D4616461F46602D06D13B4601227D
:102DF00031462046FFF775FE05E03B46012231468D
:102E00002046FFF7A4FE29462046FFF7D2FF20897F
:102E100040F007002081BDE8F08130B50C4600216C
:102E20000189C9B24FF6FF7505EA0325154325430D
:102E30002943018130BD2DE9F04105460E46174674
:102E40009846002443463A4631462846FFF7E5FFB8
:102E50002C894FF6F870044044F007044FF68F7049
:102E6000044044F070042C81BDE8F081F0B50446C4
:102E70000D4616461F463B46324629462046FFF77A
:102E8000CCFF208940F480402081F0BD82884FF63D
:102E90008F731A40828082880A4382807047028939
:102EA0004FF6F8731A40028102890A430281704783
:102EB00002894FF67F731A40028102890A43028118
:102EC0007047F0B50C4615461E460021002200232F
:102ED0000189028B038C4FF6F877394021434FF676
:102EE000FC473A4040F201173A434FF6DD773B404A
:102EF0004FF6FF7707EA06172F433B430181028312
:102F00000384F0BD21B1828842F08002828004E017
:102F100082884FF67F731A4082807047A0F8501065
:102F20007047000010B50446FA48844208D10121D8
:102F30001020FFF7B6F800211020FFF7B2F857E095
:102F4000F548844209D101214804FFF799F800218E
:102F50004FF40030FFF794F84AE0F048844209D17A
:102F600001218804FFF78CF800214FF48020FFF73F
:102F700087F83DE0EA48844209D10121C804FFF7FF
:102F80007FF800214FF40020FFF77AF830E0E548A1
:102F9000844209D101210805FFF772F800214FF49E
:102FA0008010FFF76DF823E0DF48844208D101214B
:102FB0002020FFF776F800212020FFF772F817E0B5
:102FC000DA48844209D101218807FFF759F8002126
:102FD0004FF08040FFF754F80AE0D548844207D10B
:102FE00001214005FFF74CF800216005FFF748F884
:102FF00010BD2DE9FF4705460E460024A14600BF3F
:10300000A046B08900B100BF2C8A24F44054F08857
:1030100004432C82AC8941F20C608443B08831892E
:103020000843718908430443AC81AC8A24F440749A
:10303000B0890443AC826846FEF7B3FEB5488542CA
:1030400002D0B948854202D1DDF80C9001E0DDF8EC
:103050000890A88900F4004040B109EBC90000EBDA
:10306000091031684900B0FBF1F707E009EBC9002E
:1030700000EB091031688900B0FBF1F76420B7FB61
:10308000F0F004012009642101FB1078A88900F404
:10309000004040B1322000EBC800B0FBF1F000F07E
:1030A0000700044308E0322000EB08106421B0FB65
:1030B000F1F000F00F0004432C81BDE8FF874FF4CE
:1030C0001651016000218180C18001810C21418164
:1030D00000218181704710B502460020108A20F43B
:1030E00070600B884C8823438C882343CC8823430F
:1030F0001843108210BD0021018041808180C18071
:10310000704721B1828942F40052828104E08289B1
:103110004DF6FF731A4082817047028B02F47F42A2
:103120000283028B0A430283704721B1828942F4F1
:103130000042828103E08289C2F30E0282817047DD
:1031400021B1828A42F40062828204E0828A4FF2D4
:10315000FF731A4082827047C1F308028280704771
:1031600001468888C0F308007047028A4FF6F07362
:103170001A400282028A0A430282704721B1828980
:1031800042F00202828104E082894FF6FD731A4008
:103190008281704782894FF2FF731A40828182894F
:1031A0000A4382817047028A4FF6DF731A40028217
:1031B000028A0A430282704721B1028A42F48042A5
:1031C000028204E0028A4BF6FF731A4002827047C3
:1031D000818941F001018181704721B1828A42F0E9
:1031E0000802828204E0828A4FF6F7731A408282D4
:1031F0007047028BD2B20283028B42EA0122028321
:10320000704721B1828A42F02002828204E0828AE1
:103210004FF6DF731A408282704721B1828A42F0F2
:103220001002828204E0828A4FF6EF731A40828293
:103230007047828A4FF6FB731A408282828A0A4361
:103240008282704721B1828A42F00202828204E0C7
:10325000828A4FF6FD731A40828270471AB1838AC0
:103260000B43838202E0838A8B4383827047F0B5ED
:103270000346002400260025002040F66A17B942C4
:1032800000D100BF1846C1F3421401F01F06012708
:1032900007FA06F5012C01D10C3004E0022C01D113
:1032A000103000E014301AB107682F43076002E0C5
:1032B0000768AF430760F0BD02460020B1F5007F0C
:1032C00000D100BF13880B400BB1012000E00020AB
:1032D000704701F40072B2F5007F00D100BFCA430D
:1032E0000280704770B502460024002300250020AC
:1032F00040F66A16B14200D100BFC1F3421501F099
:103300001F03012606FA03F3012D13D196893340DA
:1033100017E0000000100140004400400048004059
:10332000004C004000500040001401400078004074
:10333000007C0040022D02D1168A334001E0968ABB
:1033400033400C12012606FA04F41688344013B1F7
:103350000CB1012000E0002070BD10B50022002358
:1033600040F66A14A14200D100BF0A120124944021
:10337000A3B2DC43048010BD10B504466FF0040016
:10338000FDF732FFE11704EB5171C1F3C701394A70
:1033900011701046007800EB4001C1EBC0104FF6F1
:1033A000FF7101EAC0003449088010BD0146314A6E
:1033B00012784A434FF0E0235A6100229A611A467C
:1033C000126942F001021A6100BF4FF0E022106959
:1033D00000F001021AB100F48032002AF5D04FF05B
:1033E000E022126922F001024FF0E0231A6100226C
:1033F0009A6170470146204A12884A434FF0E02301
:103400005A6100229A611A46126942F001021A6159
:1034100000BF4FF0E022106900F001021AB100F481
:103420008032002AF5D04FF0E022126922F001022A
:103430004FF0E0231A6100229A61704770B504468C
:103440004FF4077094FBF0F0C6B24FF4077094FB92
:10345000F0F100FB114085B205E04FF40770FFF773
:10346000C9FF701EC6B2002EF7D115B12846FFF76E
:10347000C1FF70BD480000204A00002000BF704717
:1034800000BF054A128802F04002002AF9D0C2B2F9
:10349000014B9A80704700000010014000B585B0D4
:1034A00001215320FEF74EFD01218803FEF7A4FD04
:1034B0001C20019000208DF8080002208DF80900E2
:1034C00001208DF80B0001A95548FEF79DFA012057
:1034D000019002208DF80B0001A95248FEF794FAE2
:1034E0002020019001208DF80B0001A94E48FEF725
:1034F0008BFA00210846FEF78AFE05210120FEF71F
:1035000086FE2820039001208DF8120000208DF8FF
:1035100010000C208DF8110003A8FDF791FE01208A
:1035200003908DF8120000208DF8100008208DF80F
:10353000110003A8FDF784FE06208DF8000001208D
:103540008DF8030002208DF8010001208DF80200A3
:103550006846FDF7FCFD17208DF8000001208DF86E
:10356000030003208DF8010002208DF80200684658
:10357000FDF7EDFD05B000BD10B510212848FEF7A0
:10358000A5FA78B108212648FEF7A0FA50B1042127
:103590002348FEF79BFA28B101212248FEF796FA4C
:1035A00001283BD10520FFF749FF10211C48FEF7F9
:1035B0008DFA40B900BF10211948FEF787FA00289C
:1035C000F9D0012010BD08211548FEF77FFA40B957
:1035D00000BF08211248FEF779FA0028F9D002202E
:1035E000F0E704210E48FEF771FA40B900BF04214C
:1035F0000B48FEF76BFA0028F9D00320E2E701211F
:103600000848FEF763FA012808D100BF01210548E8
:10361000FEF75CFA0128F9D00420D3E70020D1E7B7
:103620000010024000000240000402401CB50121CD
:103630002020FEF787FC01208DF8040000208DF883
:1036400006004FF4C060009001208DF807000320B1
:103650008DF8050069460448FEF7D6F94FF4C061BD
:103660000148FEF74DFA1CBD001402402DE9F04F51
:1036700091B00646894614464FF0000B40F6B8302C
:10368000864209D2B0FBF6F808F101007043BF4949
:10369000B1FBF0F0471E05E04FF00008BB48B0FB5F
:1036A000F6F0471E781C00FB09F06421B0FBF1F036
:1036B0001FFA80FAB4F53D7F10D8204605F0F8FED9
:1036C000B34AB44BCDE9080105F083FECDE90A0108
:1036D00005F0FBFE05464FF0010B7EE0B4F5BD6F33
:1036E00022D8600805F0E4FEA94AAA4BCDE9020100
:1036F00005F06FFE0022A84BCDE9040105F050FD56
:1037000000221346CDE9060105F04AFD0022A34B35
:10371000CDE9080105F0E5FDCDE90A0105F0D5FE8A
:1037200005464FF0020B58E040F6B830844228D8E6
:10373000E00805F0BDFE964A964BCDE9000105F084
:1037400048FE0022944BCDE9020105F029FD00223C
:10375000924BCDE9040105F023FD00221346CDE98B
:10376000060105F01DFD00228D4BCDE9080105F095
:10377000B8FDCDE90A0105F0A8FE05464FF0030BA0
:103780002BE041F27070844227D8200905F090FEAA
:103790007F4A804BCDE9000105F01BFE0022804BE3
:1037A000CDE9020105F09DFD00227B4BCDE904012E
:1037B00005F0F6FC0022794BCDE9060105F0F0FC9E
:1037C0000022774BCDE9080105F0EAFCCDE90A01BA
:1037D00005F07BFE05464FF0040B39467148FEF7B5
:1037E00047FE51466F48FEF7E6FF51466D48FEF72B
:1037F000E4FF4FF48040ADF83C000020ADF8380005
:103800004FF40050ADF83A00A8B2ADF836000020F1
:10381000ADF83400ADF83200ADF830000CA96148C5
:10382000FFF73CFA60A018210B464FF4F072CDE987
:1038300000104FF4B471002004F0E7FE18200823B4
:103840003A464FF4B4710090002004F024FE182092
:10385000042342464FF4B4710090C82004F01BFECC
:1038600018200A232A464FF4B4710090580104F03E
:1038700012FE11B0BDE8F08F00B58FB0012102201B
:10388000FEF7BAFB01210620FEF75CFB02208DF853
:1038900024008020089002208DF8250008A95148B6
:1038A000FEF7B2F802208DF82400400308900220B1
:1038B0008DF8250008A94C48FEF7A6F803220E2132
:1038C0004948FEF72CF9032207214648FEF727F95D
:1038D0000020ADF81C002020ADF8160040F2A31027
:1038E00006900020ADF814008DF81E0005A92D48A3
:1038F000FEF773FD6020ADF828000020ADF8380019
:10390000ADF83A00ADF83600ADF834000420ADF85B
:103910002C000120ADF82A00D2200C900AA92148E1
:10392000FEF7F0FD08211F48FEF779FFD2200C902A
:103930000AA91C48FEF71FFE08211A48FEF778FF67
:103940004FF48040ADF810000020ADF80C004FF4AB
:103950000050ADF80E000020ADF80A00ADF80800E8
:10396000ADF80600ADF8040001A90E48FFF796F97E
:1039700001210C48FEF79CFD01210A48FFF7A7F939
:1039800001210848FEF7B2FD0FB000BD00BD0105E2
:10399000CDCCCCCCCCCC17400000604000005040D7
:1039A0000000404000040140202020202020202052
:1039B0002020202020202020202020202020202007
:1039C00020202020202020202020202020202020F7
:1039D00020202020202020202020202020202020E7
:1039E00000000000000802400004024001B5BDF8DC
:1039F00000000090BDF80000F849088008BD01B53E
:103A0000BDF800000090BDF80000F449891C088052
:103A100008BD08B5F148801C00880090BDF8000082
:103A200008BDEE4A10804FF0D842A2F880107047CF
:103A300010B504462046FFF7D9FF0520FFF7B6FC76
:103A4000FFF7E7FF10BDE6480089E44908807047AA
:103A5000E249891C0880704730B5014601F01F0417
:103A6000C1F34513CA0AE50205EB43151544A8B294
:103A700030BD00BF011EA0F10102D0B2FAD17047E3
:103A800030B504460D46D648808849F24131884217
:103A900005D0D348808845F21031884214D1D049EE
:103AA0004889FFF7A3FF2012FFF7A9FFE0B2FFF755
:103AB000A6FFCB498889FFF799FF2812FFF79FFFE0
:103AC000E8B2FFF79CFFABE0C548808846F60401EA
:103AD00088421DD1C2488079012804D1C04800889D
:103AE000401E001B84B2BE494889FFF77FFF2012A9
:103AF000FFF785FFE0B2FFF782FFB9498889FFF73A
:103B000075FF2812FFF77BFFE8B2FFF778FF87E029
:103B1000B348808841F66311884247D1B048807924
:103B2000A8B9AF480088401E001B84B2AC49488940
:103B3000FFF75CFF0020FFF762FF0020FFF75FFF49
:103B40002012FFF75CFFE0B2FFF759FF16E0A4492F
:103B50004889FFF74BFF2012FFF751FFE0B2FFF754
:103B60004EFF9F490988491EC1F30F20FFF747FF09
:103B70009B490978491EC8B2FFF741FF98498889D7
:103B8000FFF734FF2812FFF73AFFE8B2FFF737FFDD
:103B900093494988491EC1F30F20FFF730FF904930
:103BA0008978491EC8B2FFF72AFF39E08C4880881F
:103BB00045F21051884220D189494889FFF716FF04
:103BC0002012FFF71CFF86494989491C88B2FFF77C
:103BD0000DFFE0B2FFF713FF81498889FFF706FF69
:103BE0002812FFF70CFF7E498989491C88B2FFF72C
:103BF000FDFEE8B2FFF703FF12E079488079012863
:103C000004D177480088401E001B84B2744948895B
:103C10002146FFF706FF724988892946FFF701FF11
:103C200030BD2DE9F04105460E4600240027A04690
:103C30006B480088A84203DD69484088B04202DC36
:103C40000020BDE8F08131462846FFF719FF64489F
:103C5000808849F24131884211D06148808846F617
:103C6000040188420BD05E48808845F210318842BA
:103C700005D05B48808841F66311884203D12E202D
:103C8000FFF7B4FE0DE05648808845F21051884297
:103C900004D14FF43850FFF7A9FE02E02220FFF7CD
:103CA000A5FE4F48808849F22031884202D1022087
:103CB000FFF7DFFEFFF7ADFE04464948808841F676
:103CC0006311884201D12046BBE70220FFF7D1FEF5
:103CD000FFF79FFE04464248808849F241318842FE
:103CE0000BD03F48808845F21031884205D03C48CF
:103CF000808845F2105188420AD10220FFF7B9FEB0
:103D0000FFF787FE8046E7B24FF6FF7000EA07270D
:103D10003348808849F22531884216D0304880885F
:103D200044F23551884210D02D488088091F8842BE
:103D30000BD02B4880884BF20551884205D028488B
:103D400080884CF20551884201D1204679E7244809
:103D5000808849F2413188420BD02148808845F261
:103D60001031884205D01E48808845F210518842A3
:103D700007D1E012C002B91240EA411040EAE8203F
:103D80005FE72046FFF768FE5BE700B514488088D0
:103D900049F24131884211D01148808846F6040129
:103DA00088420BD00E48808845F21031884205D0F9
:103DB0000B48808841F66311884203D12920FFF720
:103DC00015FE14E00648808845F21051884209D15A
:103DD0004FF42450FFF70AFE09E000007E00006C5B
:103DE0001C01002040F273110720FFF71AFE00BDEE
:103DF00000B5FD48808849F24131884211D0FA4827
:103E0000808846F6040188420BD0F748808845F246
:103E10001031884205D0F448808841F66311884209
:103E200003D12820FFF7E2FD0EE0EF48808845F23D
:103E30001051884204D14FF42050FFF7D7FD03E022
:103E400000210720FFF7EDFD00BDF0B50546002479
:103E50000027E548807901280BD1E348808846F6A1
:103E60000401884205D0E048808841F66311884209
:103E700008D1DD488079F0B9DB48808841F66311CC
:103E8000884218D1082D15D2DFE805F00406080A8B
:103E90000C0E101206250DE007250BE0042509E0A5
:103EA000052507E0012505E0002503E0032501E0E5
:103EB000022500BF00BFCC48808849F241318842CA
:103EC00017D0C948808846F60401884211D0C648F8
:103ED000808845F2103188420BD0C348808845F273
:103EE0001051884205D0C048808841F6631188424D
:103EF0007ED1082D1CD2DFE805F00406090C0F1254
:103F0000151800BF14E044F0800411E044F04004B0
:103F10000EE044F0C0040BE044F0200408E044F05C
:103F2000600405E044F0A00402E044F0E00400BFB7
:103F300000BFAD48808845F21051884202D14FF44D
:103F4000585700E03627A848808845F2103188424B
:103F50000DD0A548808845F21051884207D0A2486C
:103F6000808841F66311884201D044F008049E48DD
:103F7000808846F60401884201D144F002042146BB
:103F80003846FFF74EFD9848808841F66311884215
:103F90001DD004F0200068B19348008892494988F8
:103FA000884214DA9048068840888F49088008467D
:103FB00046800CE08C4800888B494988884206DDA1
:103FC000894806884088884908800846468086488F
:103FD000808845F21051884254D183494889FFF7BF
:103FE00005FD0020FFF70BFD7F494989491C00E0D2
:103FF00077E088B2FFF7FAFC0020FFF700FD7A496E
:104000004989891C88B2FFF7F1FC77490988491E64
:10401000C1F30F20FFF7F3FC73494989C91C88B22B
:10402000FFF7E4FC70490978491EC8B2FFF7E7FCC6
:104030006D498889FFF7DAFC0020FFF7E0FC6A4948
:104040008989491C88B2FFF7D1FC0020FFF7D7FC13
:1040500065498989891C88B2FFF7C8FC624949888B
:10406000491EC1F30F20FFF7CAFC5F498989C91CAB
:1040700088B2FFF7BBFC5C498978491EC8B2FFF7DC
:10408000BEFC55E058494889FFF7B0FC0020FFF717
:10409000B6FC0020FFF7B3FC53490988491EC1F361
:1040A0000F20FFF7ACFC50490978491EC8B2FFF752
:1040B000A6FC4D498889FFF799FC0020FFF79FFC7B
:1040C0000020FFF79CFC48494988491EC1F30F2096
:1040D000FFF795FC44498978491EC8B2FFF78FFC69
:1040E00026E0082D1CD2DFE805F004070A0D0F12A8
:1040F000151844F0300413E044F0100410E044F0CC
:1041000020040DE000BF0BE044F0380408E044F068
:10411000280405E044F0180402E044F0080400BF5D
:1041200000BF032744F4805421463846FFF779FC4A
:10413000F0BD30B504460D4629462046FFF7A0FCE9
:10414000FFF781FC294800882949088030BD70B5F7
:1041500004460D4616462448808849F2413188427B
:1041600005D02148808845F21031884214D11E497B
:104170004889FFF73BFC2012FFF741FCE0B2FFF754
:104180003EFC19498889FFF731FC2812FFF737FCFC
:10419000E8B2FFF734FC93E01348808845F21051F1
:1041A000884227D110494889FFF720FC2012FFF7E9
:1041B00026FC0D494989491C88B2FFF717FCE0B27B
:1041C000FFF71DFC08498889FFF710FC2812FFF74C
:1041D00016FC05498989491C88B2FFF707FCE8B23B
:1041E000FFF70DFC6CE000001C01002050000020D7
:1041F0008000006CFD48808841F66311884228D118
:10420000FA48807920B9F9480088401E001B84B222
:10421000F6494889FFF7EAFB2012FFF7F0FBE0B20E
:10422000FFF7EDFB2012FFF7EAFBE0B2FFF7E7FB39
:10423000EE498889FFF7DAFB2812FFF7E0FBE8B2C6
:10424000FFF7DDFB2812FFF7DAFBE8B2FFF7D7FB39
:1042500036E0E648808846F6040188421DD1E348EE
:104260008079012804D1E1480088401E001B84B2F7
:10427000DE494889FFF7BAFB2012FFF7C0FBE0B226
:10428000FFF7BDFBD9498889FFF7B0FB2812FFF77C
:10429000B6FBE8B2FFF7B3FB12E0D44880790128FF
:1042A00004D1D2480088401E001B84B2CF494889FF
:1042B0002146FFF7B6FBCD4988892946FFF7B1FBB8
:1042C000CA480089CA4908804FF0D840A0F88060E9
:1042D00070BD2DE9F0470446BE20FFF787FB05209F
:1042E000FFF78DFB204605F0E3F807464FF06632F6
:1042F000C04B04F0FCFF054605F0E7F81FFA80F913
:104300004846FFF77CFB0120FFF779FBFF20FFF712
:1043100076FB0020FFF773FB0020FFF770FBBDE882
:10432000F08710B50446002C66D1B0498871F020A2
:1043300008804FF4A07048800846808849F24131D7
:1043400088420BD0A948808846F60401884205D0EF
:10435000A648808845F2103188421AD12C20A34902
:1043600008812A2048812B2088810846808846F6CB
:104370000401884205D09D48808845F2103188426A
:1043800006D14FF4A070994908804FF4F07048802E
:10439000A1E09648808845F21051884210D14FF430
:1043A0003050924908814FF4285048814FF42C50E6
:1043B00088814FF4F07008804FF4487048808AE09C
:1043C0008A48808841F6631188420DD12C208749A4
:1043D00008812B2048812A2088814FF4F0700880C2
:1043E0004FF44870488076E02220804908812020E0
:1043F0004881212088816EE001207C4988714FF43A
:10440000A0700880F02048800846808849F2413139
:10441000884205D07548808845F21031884207D11E
:104420002C20724908812A2048812B2088813FE076
:104430006E48808846F60401884207D12C206B49DB
:1044400008812B2048812A20888131E067488088B4
:1044500045F21051884210D14FF430506349088121
:104460004FF4285048814FF42C5088814FF4487005
:1044700008804FF4F07048801AE05C48808841F66C
:10448000631188420DD12C20584908812A20488187
:104490002B2088814FF4487008804FF4F0704880DA
:1044A00006E022205149088121204881202088816E
:1044B0004E48808846F60401884205D04B488088E3
:1044C00045F21031884206D14FF4F0704749088018
:1044D0004FF4A07048800020FFF7B7FC10BD2DE915
:1044E000F04F86B004460D469046994604EB08000E
:1044F000401E86B205EB0900401E87B23B4880880B
:1045000049F24131884215D03848808845F210314F
:1045100088420FD03548808846F60401884209D089
:1045200032488079012826D13048808841F66311CD
:10453000884220D12D494889FFF758FA2012FFF709
:104540005EFAE0B2FFF75BFA3012FFF758FAF0B20A
:10455000FFF755FA25498889FFF748FA2812FFF72F
:104560004EFAE8B2FFF74BFA3812FFF748FAF8B202
:10457000FFF745FABEE01D48808841F66311884286
:104580003AD11A480088A0EB0800001B84B205EB62
:104590000900401E1FFA80F914494889FFF726FADE
:1045A0002012FFF72CFAE0B2FFF729FA04EB08011A
:1045B000491EC1F30F20FFF722FA04EB0801491E40
:1045C000C8B2FFF71CFA09498889FFF70FFA2812C9
:1045D000FFF715FAE8B2FFF712FA4FEA2920FFF7C2
:1045E0000EFA09F0FF00FFF70AFA83E01C01002031
:1045F0007E00006C66660440FE48808845F21051DB
:10460000884244D1FB494889FFF7F0F92012FFF7AF
:10461000F6F9F8494989491C88B2FFF7E7F9E0B291
:10462000FFF7EDF9F3494989891C88B2FFF7DEF9F4
:104630003012FFF7E4F9EF494989C91C88B2FFF746
:10464000D5F9F0B2FFF7DBF9EA498889FFF7CEF92F
:104650002812FFF7D4F9E7498989491C88B2FFF786
:10466000C5F9E8B2FFF7CBF9E2498989891C88B21C
:10467000FFF7BCF93812FFF7C2F9DE498989C91C76
:1046800088B2FFF7B3F9F8B2FFF7B9F932E0D948C9
:10469000807901280ED1AA46BB46D6480088801BE7
:1046A000401E80B20190D3480088001B401E80B29B
:1046B000009003E0A246B346019500975020059074
:1046C00051200490522003905320029051460598A7
:1046D000FFF7A7F959460498FFF7A3F90199039842
:1046E000FFF79FF900990298FFF79BF929462046AA
:1046F000FFF7C6F906B0BDE8F08F70B50446002696
:10470000BC48058840884543BA48808846F604017D
:10471000884216D1B7488079012812D10020B549C6
:1047200088712A2048812B20888100210846FFF7C4
:10473000A7F90120AF4988712B2048812A20888160
:1047400003E000210846FFF79BF9FFF77CF90026FC
:1047500002E0A9480480761CAE42FAD370BD00B5D1
:10476000A1B00020209001217A20FDF7EBFB012170
:104770000846FDF71FFC4FF400401E9001208DF805
:104780007C0000208DF87E0002208DF87D00012045
:104790008DF87F001EA99948FDF736F94CF2337069
:1047A0001E9002208DF87C0000208DF87E000320F2
:1047B0008DF87D0001208DF87F001EA99048FDF73F
:1047C00023F94FF680701E9002208DF87C000020A7
:1047D0008DF87E0003208DF87D0001208DF87F008C
:1047E0001EA98848FDF710F94FF480501E90022052
:1047F0008DF87C0000208DF87E0003208DF87D0070
:1048000001208DF87F001EA97F48FDF7FDF84FF4C9
:1048100080501E9002208DF87C0000208DF87E00D4
:1048200003208DF87D0001208DF87F001EA97748B8
:10483000FDF7EAF80C2200217148FDF770F90C220F
:1048400001216F48FDF76BF90C2204216C48FDF73C
:1048500066F90C2205216A48FDF761F90C2208214E
:104860006748FDF75CF90C2209216548FDF757F907
:104870000C220A216248FDF752F90C220E216048F1
:10488000FDF74DF90C220F215D48FDF748F90C2288
:1048900007215C48FDF743F90C2208215948FDF730
:1048A0003EF90C2209215748FDF739F90C220A215B
:1048B0005448FDF734F90C220B215248FDF72FF92B
:1048C0000C2211464F48FDF72AF90C220D214D48C4
:1048D000FDF725F90C220E214A48FDF720F90C229C
:1048E0000F214848FDF71BF90C2211464648FDF7F9
:1048F00016F90C2211464548FDF711F90F200890D2
:10490000002009903C200A9000200B900C900D9004
:104910000E900920019000200290082003900020B2
:10492000049005900690079006200F9000201090AC
:104930001190102012900020139015901490169052
:1049400017904FF480501890002019904FF4804039
:104950001A9000201B9008A81C9001A81D900FA879
:10496000FCF703FD01210620FCF78AFD3220FEF74B
:1049700065FD01210020FFF754F83220FEF75EFDAF
:104980000020FFF755F81B49888008468088FF28DB
:104990000ADB084680884FF6FF71884204D015482C
:1049A0008088B0F5134F7DD1D320FFF71FF8FFF7B4
:1049B00030F810498880FFF72CF80E498880FFF7FF
:1049C00028F80C498880084680884FF6FF7101EA74
:1049D000002008498880FFF71CF8064989880843A9
:1049E000044988800846808849F24131884259D07C
:1049F000BF200DE01C0100208000006C000402407C
:104A0000000C024000100240001402400018024056
:104A1000FEF7ECFFFEF7FDFFFE498880FEF7F9FF89
:104A2000FC498880FEF7F5FFFA498880FEF7F1FF20
:104A3000F8498880084680884FF6FF7101EA002017
:104A4000F4498880FEF7E5FFF24989880843F14977
:104A500088800846808846F6040188427AD0D420AF
:104A6000FEF7C4FFFEF7D5FFEA498880FEF7D1FFC5
:104A7000E8498880FEF7CDFFE649888008468088AF
:104A80004FF6FF7101EA0020E2498880FEF7C1FF7E
:104A9000E04989880843DF4988800846808845F2D4
:104AA000103100E056E0884254D04FF45A40FEF7EF
:104AB0009DFFFEF7AEFFD74988804FF45B40FEF7BD
:104AC00095FFFEF7A6FFD3498880084680884FF6F9
:104AD000FF7101EA0020CF4988804FF45C40FEF767
:104AE00085FFFEF796FFCB4989880843C94988802E
:104AF00008468088B0F5004F02D145F210508880FA
:104B0000C448808845F21051884223D0A120FEF786
:104B10006DFFFEF77EFFBF498880FEF77AFFBD4933
:104B20008880084680884FF6FF7101EA0020B94965
:104B30008880FEF76EFFB74989880843B5498880A9
:104B40000846808845F26171884203D141F66310BE
:104B5000B0498880AF48808849F24131884211D0FD
:104B6000AC48808845F2103188420BD0A948808833
:104B700045F21051884205D0A648808841F663115D
:104B800088421DD1A448006820F00F004FF020415A
:104B9000C1F81C010846D0F81C0120F47060C1F86F
:104BA0001C010846D0F81C0140F00300C1F81C01AC
:104BB0000846D0F81C0140F40070C1F81C0128E040
:104BC0009448808846F60401884205D09148808840
:104BD0004CF2055188421CD18F48006820F00F002C
:104BE0004FF02041C1F81C010846D0F81C0120F408
:104BF0007060C1F81C010846D0F81C0140F00A00A2
:104C0000C1F81C010846D0F81C0140F44060C1F80E
:104C10001C018048818881A004F042FD7D48808885
:104C200049F2413188427CD1CF20FEF7DFFE0020DF
:104C3000FEF7E5FEC120FEF7E2FE3020FEF7DFFEC4
:104C4000ED20FEF7D3FE6420FEF7D9FE0320FEF729
:104C5000D6FE1220FEF7D3FE8120FEF7D0FEE8201C
:104C6000FEF7C4FE8520FEF7CAFE1020FEF7C7FE41
:104C70007A20FEF7C4FECB20FEF7B8FE3920FEF7FF
:104C8000BEFE2C20FEF7BBFE0020FEF7B8FE34204F
:104C9000FEF7B5FE0220FEF7B2FEF720FEF7A6FEF5
:104CA0002020FEF7ACFEEA20FEF7A0FE0020FEF773
:104CB000A6FE0020FEF7A3FEC020FEF797FE1B20F5
:104CC000FEF79DFEC120FEF791FE0120FEF797FE44
:104CD000C520FEF78BFE3020FEF791FE3020FEF758
:104CE0008EFEC720FEF782FEB720FEF788FE362034
:104CF000FEF77CFE4820FEF782FE3A20FEF776FEA5
:104D00005520FEF77CFEB120FEF770FE0020FEF776
:104D100076FE1A20FEF773FEB620FEF767FE0A2025
:104D200000E0A6E0FEF76BFEA220FEF768FEF22090
:104D3000FEF75CFE0020FEF762FE2620FEF756FE20
:104D40000120FEF75CFEE020FEF750FE0F20FEF78C
:104D500056FE2A20FEF753FE2820FEF750FE0820BC
:104D6000FEF74DFE0E20FEF74AFE0820FEF747FE36
:104D70005420FEF744FEA920FEF741FE4320FEF733
:104D80003EFE0A20FEF73BFE0F20FEF738FE002015
:104D9000FEF735FE0020FEF732FE0020FEF72FFE64
:104DA0000020FEF72CFEE120FEF720FE0020FEF79B
:104DB00026FE1520FEF723FE1720FEF720FE072013
:104DC000FEF71DFE1120FEF71AFE0620FEF717FE65
:104DD0002B20FEF714FE5620FEF711FE3C20FEF7B6
:104DE0000EFE0520FEF70BFE1020FEF708FE0F203A
:104DF000FEF705FE3F20FEF702FE3F20FEF7FFFD17
:104E00000F20FEF7FCFD2B20FEF7F0FD0020FEF743
:104E1000F6FD0BE01C0100201C0100A0204C4344C7
:104E20002049443A25780D0A000000000020FEF7D2
:104E3000E6FD0120FEF7E3FD3F20FEF7E0FD2A201E
:104E4000FEF7D4FD0020FEF7DAFD0020FEF7D7FDC7
:104E50000020FEF7D4FDEF20FEF7D1FD1120FEF774
:104E6000C5FD7820FEF7EAFA2920FEF7BFFD03F022
:104E70001DB9FE48808846F6040188427ED1112083
:104E8000FEF7B4FD1420FEF7D9FAD020FEF7AEFDF0
:104E90000720FEF7B4FD4220FEF7B1FD1D20FEF70E
:104EA000AEFDD120FEF7A2FD0020FEF7A8FD1A20DE
:104EB000FEF7A5FD0920FEF7A2FDD220FEF796FD24
:104EC0000120FEF79CFD2220FEF799FDC020FEF791
:104ED0008DFD1020FEF793FD3B20FEF790FD002096
:104EE000FEF78DFD0220FEF78AFD1120FEF787FDFB
:104EF000C520FEF77BFD0320FEF781FDC820FEF7ED
:104F000075FD0020FEF77BFD2520FEF778FD2120B2
:104F1000FEF775FD0520FEF772FD0020FEF76FFD20
:104F20000A20FEF76CFD6520FEF769FD2520FEF7DF
:104F300066FD7720FEF763FD5020FEF760FD0F2031
:104F4000FEF75DFD0020FEF75AFDF820FEF74EFD4E
:104F50000120FEF754FDFE20FEF748FD0020FEF77D
:104F60004EFD0220FEF74BFD2020FEF73FFD3620D0
:104F7000FEF73CFD0820FEF742FD00E02AE03A2063
:104F8000FEF734FD5520FEF73AFD2B20FEF72EFDEF
:104F90000020FEF734FD0020FEF731FD0120FEF772
:104FA0002EFD3F20FEF72BFD2A20FEF71FFD0020DF
:104FB000FEF725FD0020FEF722FD0120FEF71FFD74
:104FC000DF20FEF71CFD7820FEF738FA2920FEF7D7
:104FD0000DFD4CE7A548808845F21031884240F02D
:104FE0007C87ED20FEF702FD0120FEF708FDFE2084
:104FF000FEF705FDEE20FEF7F9FCDE20FEF7FFFCD4
:105000002120FEF7FCFCF120FEF7F0FC0120FEF76A
:10501000F6FCDF20FEF7EAFC1020FEF7F0FCC420CF
:10502000FEF7E4FC8F20FEF7EAFCC620FEF7DEFC6C
:105030000020FEF7E4FCE220FEF7E1FCE220FEF7B0
:10504000DEFCE220FEF7DBFCBF20FEF7CFFCAA204F
:10505000FEF7D5FCB020FEF7C9FC0D20FEF7CFFC13
:105060000020FEF7CCFC0D20FEF7C9FC0020FEF767
:10507000C6FC1120FEF7C3FC0020FEF7C0FC19207F
:10508000FEF7BDFC0020FEF7BAFC2120FEF7B7FCBE
:105090000020FEF7B4FC2D20FEF7B1FC0020FEF747
:1050A000AEFC3D20FEF7ABFC0020FEF7A8FC5D2027
:1050B000FEF7A5FC0020FEF7A2FC5D20FEF79FFC9A
:1050C0000020FEF79CFCB120FEF790FC8020FEF74C
:1050D00096FC0020FEF793FC8B20FEF790FC00204E
:1050E000FEF78DFC9620FEF78AFC0020FEF787FC79
:1050F000B220FEF77BFC0020FEF781FC0020FEF7CB
:105100007EFC0220FEF77BFC0020FEF778FC0320EB
:10511000FEF775FC0020FEF772FCB320FEF766FC7C
:105120000020FEF76CFC0020FEF769FC0020FEF773
:1051300066FC0020FEF763FC0020FEF760FC002008
:10514000FEF75DFC0020FEF75AFC0020FEF757FC3E
:105150000020FEF754FC0020FEF751FC0020FEF773
:105160004EFC0020FEF74BFC0020FEF748FC002020
:10517000FEF745FC0020FEF742FC0020FEF73FFC56
:105180000020FEF73CFC0020FEF739FC0020FEF773
:1051900036FC0020FEF733FC0020FEF730FC002038
:1051A000FEF72DFC0020FEF72AFC0020FEF727FC6E
:1051B000B420FEF71BFC8B20FEF721FC0020FEF73D
:1051C0001EFC9620FEF71BFC0020FEF718FCA12019
:1051D000FEF715FC0020FEF712FCB520FEF706FCDA
:1051E0000220FEF70CFC0020FEF709FC0320FEF76E
:1051F00006FC0020FEF703FC0420FEF700FC002064
:10520000FEF7FDFBB620FEF7F1FB0020FEF7F7FBF3
:105210000020FEF7F4FBB720FEF7E8FB0020FEF7C6
:10522000EEFB0020FEF7EBFB3F20FEF7E8FB002043
:10523000FEF7E5FB5E20FEF7E2FB0020FEF7DFFB5A
:105240006420FEF7DCFB0020FEF7D9FB8C20FEF784
:10525000D6FB0020FEF7D3FBAC20FEF7D0FB0020EE
:10526000FEF7CDFBDC20FEF7CAFB01E01C010020AD
:105270000020FEF7C4FB7020FEF7C1FB0020FEF704
:10528000BEFB9020FEF7BBFB0020FEF7B8FBEB2037
:10529000FEF7B5FB0020FEF7B2FBDC20FEF7AFFB0C
:1052A0000020FEF7ACFBB820FEF7A0FB0020FEF7C5
:1052B000A6FB0020FEF7A3FB0020FEF7A0FB0020CA
:1052C000FEF79DFB0020FEF79AFB0020FEF797FB00
:1052D0000020FEF794FB0020FEF791FBBA20FEF7BA
:1052E00085FB2420FEF78BFB0020FEF788FB0020C7
:1052F000FEF785FB0020FEF782FBC120FEF776FB60
:105300002020FEF77CFB0020FEF779FB5420FEF7FF
:1053100076FB0020FEF773FBFF20FEF770FB0020FA
:10532000FEF76DFBC220FEF761FB0A20FEF767FB6C
:105330000020FEF764FB0420FEF761FB0020FEF76F
:105340005EFBC320FEF752FB3C20FEF758FB00201B
:10535000FEF755FB3A20FEF752FB0020FEF74FFB0D
:105360003920FEF74CFB0020FEF749FB3720FEF703
:1053700046FB0020FEF743FB3C20FEF740FB0020ED
:10538000FEF73DFB3620FEF73AFB0020FEF737FB29
:105390003220FEF734FB0020FEF731FB2F20FEF712
:1053A0002EFB0020FEF72BFB2C20FEF728FB002015
:1053B000FEF725FB2920FEF722FB0020FEF71FFB4E
:1053C0002620FEF71CFB0020FEF719FB2420FEF729
:1053D00016FB0020FEF713FB2420FEF710FB002035
:1053E000FEF70DFB2320FEF70AFB0020FEF707FB6C
:1053F0003C20FEF704FB0020FEF701FB3620FEF701
:10540000FEFA0020FEF7FBFA3220FEF7F8FA002041
:10541000FEF7F5FA2F20FEF7F2FA0020FEF7EFFA7A
:105420002C20FEF7ECFA0020FEF7E9FA2920FEF71F
:10543000E6FA0020FEF7E3FA2620FEF7E0FA002065
:10544000FEF7DDFA2420FEF7DAFA0020FEF7D7FA9D
:105450002420FEF7D4FA0020FEF7D1FA2320FEF72D
:10546000CEFA0020FEF7CBFAC420FEF7BFFA622086
:10547000FEF7C5FA0020FEF7C2FA0520FEF7BFFAD4
:105480000020FEF7BCFA8420FEF7B9FA0020FEF7F0
:10549000B6FAF020FEF7B3FA0020FEF7B0FA1820B3
:1054A000FEF7ADFA0020FEF7AAFAA420FEF7A7FA4D
:1054B0000020FEF7A4FA1820FEF7A1FA0020FEF75C
:1054C0009EFA5020FEF79BFA0020FEF798FA0C2077
:1054D000FEF795FA0020FEF792FA1720FEF78FFAF2
:1054E0000020FEF78CFA9520FEF789FA0020FEF7DF
:1054F00086FAF320FEF783FA0020FEF780FAE62012
:10550000FEF77DFA0020FEF77AFAC520FEF76EFA64
:105510003220FEF774FA0020FEF771FA4420FEF7FD
:105520006EFA0020FEF76BFA6520FEF768FA00209D
:10553000FEF765FA7620FEF762FA0020FEF75FFAC2
:105540008820FEF75CFA0020FEF759FAC620FEF725
:105550004DFA2020FEF753FA0020FEF750FA1720EC
:10556000FEF74DFA0020FEF74AFA0120FEF747FA4F
:105570000020FEF744FAC720FEF738FA0020FEF7B5
:105580003EFA0020FEF73BFA0020FEF738FA002032
:10559000FEF735FAC820FEF729FA0020FEF72FFAA9
:1055A0000020FEF72CFA0020FEF729FA0020FEF773
:1055B00026FAC920FEF71AFA0020FEF720FA00208A
:1055C000FEF71DFA0020FEF71AFA0020FEF717FA80
:1055D0000020FEF714FA0020FEF711FA0020FEF773
:1055E0000EFA0020FEF70BFA0020FEF708FA002062
:1055F000FEF705FA0020FEF702FA0020FEF7FFF999
:105600000020FEF7FCF90020FEF7F9F90020FEF774
:10561000F6F90020FEF7F3F9E020FEF7E7F916208F
:10562000FEF7EDF90020FEF7EAF91C20FEF7E7F996
:105630000020FEF7E4F92120FEF7E1F90020FEF753
:10564000DEF93620FEF7DBF90020FEF7D8F9462018
:10565000FEF7D5F90020FEF7D2F95220FEF7CFF978
:105660000020FEF7CCF96420FEF7C9F90020FEF710
:10567000C6F97A20FEF7C3F90020FEF7C0F98B20A7
:10568000FEF7BDF90020FEF7BAF99920FEF7B7F949
:105690000020FEF7B4F9A820FEF7B1F90020FEF7CC
:1056A000AEF9B920FEF7ABF90020FEF7A8F9C42047
:1056B000FEF7A5F90020FEF7A2F9CA20FEF79FF930
:1056C0000020FEF79CF9D220FEF799F90020FEF7A2
:1056D00096F9D920FEF793F90020FEF790F9E02023
:1056E000FEF78DF90020FEF78AF9F320FEF787F91F
:1056F0000020FEF784F9E120FEF778F91620FEF786
:105700007EF90020FEF77BF91C20FEF778F90020D7
:10571000FEF775F92220FEF772F90020FEF76FF907
:105720003620FEF76CF90020FEF769F94520FEF7F8
:1057300066F90020FEF763F95220FEF760F90020B9
:10574000FEF75DF96420FEF75AF90020FEF757F9DD
:105750007A20FEF754F90020FEF751F98B20FEF76E
:105760004EF90020FEF74BF99920FEF748F900208A
:10577000FEF745F9A820FEF742F90020FEF73FF9B1
:10578000B920FEF73CF90020FEF739F9C420FEF7F6
:1057900036F90020FEF733F9CA20FEF730F9002071
:1057A000FEF72DF9D220FEF72AF90020FEF727F99F
:1057B000D820FEF724F90020FEF721F9E020FEF7BB
:1057C0001EF90020FEF71BF9F320FEF718F9002060
:1057D000FEF715F9E220FEF709F90520FEF70FF9AB
:1057E0000020FEF70CF90B20FEF709F90020FEF768
:1057F00006F91B20FEF703F90020FEF700F934201C
:10580000FEF7FDF80020FEF7FAF84420FEF7F7F85F
:105810000020FEF7F4F84F20FEF7F1F80020FEF725
:10582000EEF86120FEF7EBF80020FEF7E8F87920AB
:10583000FEF7E5F80020FEF7E2F88820FEF7DFF833
:105840000020FEF7DCF89720FEF7D9F80020FEF7DD
:10585000D6F8A620FEF7D3F80020FEF7D0F8B72040
:10586000FEF7CDF80020FEF7CAF8C220FEF7C7F811
:105870000020FEF7C4F8C720FEF7C1F80020FEF7AD
:10588000BEF8D120FEF7BBF80020FEF7B8F8D6200E
:10589000FEF7B5F80020FEF7B2F8DD20FEF7AFF80E
:1058A0000020FEF7ACF8F320FEF7A9F80020FEF781
:1058B000A6F8E320FEF79AF80520FEF7A0F80020EE
:1058C000FEF79DF80A20FEF79AF80020FEF797F8F9
:1058D0001C20FEF794F80020FEF791F83320FEF725
:1058E0008EF80020FEF78BF84420FEF788F80020A1
:1058F000FEF785F85020FEF782F80020FEF77FF8CB
:105900006220FEF77CF80020FEF779F87820FEF799
:1059100076F80020FEF773F88820FEF770F8002074
:10592000FEF76DF89720FEF76AF80020FEF767F89B
:10593000A620FEF764F80020FEF761F8B720FEF716
:105940005EF80020FEF75BF8C220FEF758F8002052
:10595000FEF755F8C720FEF752F80020FEF74FF883
:10596000D120FEF74CF80020FEF749F8D520FEF7CD
:1059700046F80020FEF743F8DD20FEF740F800204F
:10598000FEF73DF8F320FEF73AF80020FEF737F86F
:10599000E420FEF72BF80120FEF731F80020FEF797
:1059A0002EF80120FEF72BF80020FEF728F8022041
:1059B000FEF725F80020FEF722F82A20FEF71FF850
:1059C0000020FEF71CF83C20FEF719F80020FEF737
:1059D00016F84B20FEF713F80020FEF710F85D20B4
:1059E000FEF70DF80020FEF70AF87420FEF707F81E
:1059F0000020FEF704F88420FEF701F80020FDF7F0
:105A0000FEFF9320FDF7FBFF0020FDF7F8FFA2202B
:105A1000FDF7F5FF0020FDF7F2FFB320FDF7EFFFE4
:105A20000020FDF7ECFFBE20FDF7E9FF0020FDF7A9
:105A3000E6FFC420FDF7E3FF0020FDF7E0FFCD20E7
:105A4000FDF7DDFF0020FDF7DAFFD320FDF7D7FFDC
:105A50000020FDF7D4FFDD20FDF7D1FF0020FDF78A
:105A6000CEFFF320FDF7CBFF0020FDF7C8FFE520B8
:105A7000FDF7BCFF0020FDF7C2FF0020FDF7BFFFD0
:105A80000020FDF7BCFF0020FDF7B9FF0220FDF765
:105A9000B6FF0020FDF7B3FF2920FDF7B0FF00207F
:105AA000FDF7ADFF3C20FDF7AAFF0020FDF7A7FFA3
:105AB0004B20FDF7A4FF0020FDF7A1FF5D20FDF7BF
:105AC0009EFF0020FDF79BFF7420FDF798FF00204C
:105AD000FDF795FF8420FDF792FF0020FDF78FFF73
